{
  "contractName": "ColaMixture",
  "abi": [
    {
      "anonymous": false,
      "inputs": [
        {
          "indexed": false,
          "internalType": "uint256",
          "name": "colaId",
          "type": "uint256"
        },
        {
          "indexed": false,
          "internalType": "string",
          "name": "name",
          "type": "string"
        },
        {
          "indexed": false,
          "internalType": "uint256",
          "name": "code",
          "type": "uint256"
        }
      ],
      "name": "NewCola",
      "type": "event"
    },
    {
      "constant": true,
      "inputs": [
        {
          "internalType": "uint256",
          "name": "",
          "type": "uint256"
        }
      ],
      "name": "colaToOwner",
      "outputs": [
        {
          "internalType": "address",
          "name": "",
          "type": "address"
        }
      ],
      "payable": false,
      "stateMutability": "view",
      "type": "function"
    },
    {
      "constant": true,
      "inputs": [
        {
          "internalType": "uint256",
          "name": "",
          "type": "uint256"
        }
      ],
      "name": "colas",
      "outputs": [
        {
          "internalType": "string",
          "name": "name",
          "type": "string"
        },
        {
          "internalType": "uint256",
          "name": "code",
          "type": "uint256"
        },
        {
          "internalType": "uint8",
          "name": "level",
          "type": "uint8"
        },
        {
          "internalType": "uint32",
          "name": "readyTime",
          "type": "uint32"
        }
      ],
      "payable": false,
      "stateMutability": "view",
      "type": "function"
    },
    {
      "constant": true,
      "inputs": [],
      "name": "getCooldownTime",
      "outputs": [
        {
          "internalType": "uint32",
          "name": "",
          "type": "uint32"
        }
      ],
      "payable": false,
      "stateMutability": "view",
      "type": "function"
    },
    {
      "constant": true,
      "inputs": [
        {
          "internalType": "address",
          "name": "",
          "type": "address"
        }
      ],
      "name": "ownerColaCount",
      "outputs": [
        {
          "internalType": "uint256",
          "name": "",
          "type": "uint256"
        }
      ],
      "payable": false,
      "stateMutability": "view",
      "type": "function"
    },
    {
      "constant": false,
      "inputs": [
        {
          "internalType": "string",
          "name": "_name",
          "type": "string"
        }
      ],
      "name": "produceRandomCola",
      "outputs": [],
      "payable": true,
      "stateMutability": "payable",
      "type": "function"
    },
    {
      "constant": false,
      "inputs": [
        {
          "internalType": "uint32",
          "name": "_cooldownTime",
          "type": "uint32"
        }
      ],
      "name": "setCooldownTime",
      "outputs": [],
      "payable": false,
      "stateMutability": "nonpayable",
      "type": "function"
    },
    {
      "constant": false,
      "inputs": [
        {
          "internalType": "address",
          "name": "_newOwner",
          "type": "address"
        }
      ],
      "name": "setOwner",
      "outputs": [],
      "payable": false,
      "stateMutability": "nonpayable",
      "type": "function"
    },
    {
      "constant": false,
      "inputs": [
        {
          "internalType": "string",
          "name": "_name",
          "type": "string"
        },
        {
          "internalType": "uint256",
          "name": "_colaId1",
          "type": "uint256"
        },
        {
          "internalType": "uint256",
          "name": "_colaId2",
          "type": "uint256"
        }
      ],
      "name": "mixCola",
      "outputs": [],
      "payable": false,
      "stateMutability": "nonpayable",
      "type": "function"
    }
  ],
  "bytecode": "0x60806040526010600055600054600a0a600155736d849ead5d243124a1c50b88011439757965e7ae600260006101000a81548173ffffffffffffffffffffffffffffffffffffffff021916908373ffffffffffffffffffffffffffffffffffffffff160217905550603c600660006101000a81548163ffffffff021916908363ffffffff16021790555034801561009557600080fd5b50611002806100a56000396000f3fe60806040526004361061007b5760003560e01c80638f2a02b41161004e5780638f2a02b4146103035780639dcc99041461033a578063afd9b9001461039f578063c7616ae31461045a5761007b565b806301c3fe671461008057806313af4035146100fb57806335e2e27a1461014c578063658e230814610228575b600080fd5b34801561008c57600080fd5b506100b9600480360360208110156100a357600080fd5b810190808035906020019092919050505061049b565b604051808273ffffffffffffffffffffffffffffffffffffffff1673ffffffffffffffffffffffffffffffffffffffff16815260200191505060405180910390f35b34801561010757600080fd5b5061014a6004803603602081101561011e57600080fd5b81019080803573ffffffffffffffffffffffffffffffffffffffff1690602001909291905050506104ce565b005b34801561015857600080fd5b506102266004803603606081101561016f57600080fd5b810190808035906020019064010000000081111561018c57600080fd5b82018360208201111561019e57600080fd5b803590602001918460018302840111640100000000831117156101c057600080fd5b91908080601f016020809104026020016040519081016040528093929190818152602001838380828437600081840152601f19601f82011690508083019250505050505050919291929080359060200190929190803590602001909291905050506105b8565b005b34801561023457600080fd5b506102616004803603602081101561024b57600080fd5b81019080803590602001909291905050506107c5565b60405180806020018581526020018460ff1660ff1681526020018363ffffffff1663ffffffff168152602001828103825286818151815260200191508051906020019080838360005b838110156102c55780820151818401526020810190506102aa565b50505050905090810190601f1680156102f25780820380516001836020036101000a031916815260200191505b509550505050505060405180910390f35b34801561030f57600080fd5b506103186108b7565b604051808263ffffffff1663ffffffff16815260200191505060405180910390f35b34801561034657600080fd5b506103896004803603602081101561035d57600080fd5b81019080803573ffffffffffffffffffffffffffffffffffffffff1690602001909291905050506108d1565b6040518082815260200191505060405180910390f35b610458600480360360208110156103b557600080fd5b81019080803590602001906401000000008111156103d257600080fd5b8201836020820111156103e457600080fd5b8035906020019184600183028401116401000000008311171561040657600080fd5b91908080601f016020809104026020016040519081016040528093929190818152602001838380828437600081840152601f19601f8201169050808301925050505050505091929192905050506108e9565b005b34801561046657600080fd5b506104996004803603602081101561047d57600080fd5b81019080803563ffffffff169060200190929190505050610ad1565b005b60046020528060005260406000206000915054906101000a900473ffffffffffffffffffffffffffffffffffffffff1681565b600260009054906101000a900473ffffffffffffffffffffffffffffffffffffffff1673ffffffffffffffffffffffffffffffffffffffff163373ffffffffffffffffffffffffffffffffffffffff1614610574576040517f08c379a0000000000000000000000000000000000000000000000000000000008152600401808060200182810382526030815260200180610f726030913960400191505060405180910390fd5b80600260006101000a81548173ffffffffffffffffffffffffffffffffffffffff021916908373ffffffffffffffffffffffffffffffffffffffff16021790555050565b6004600083815260200190815260200160002060009054906101000a900473ffffffffffffffffffffffffffffffffffffffff1673ffffffffffffffffffffffffffffffffffffffff163373ffffffffffffffffffffffffffffffffffffffff1614801561068457506004600082815260200190815260200160002060009054906101000a900473ffffffffffffffffffffffffffffffffffffffff1673ffffffffffffffffffffffffffffffffffffffff163373ffffffffffffffffffffffffffffffffffffffff16145b6106f6576040517f08c379a000000000000000000000000000000000000000000000000000000000815260040180806020018281038252601e8152602001807f596f7520646f6e2774206f776e2074686573652074776f20636f6c617321000081525060200191505060405180910390fd5b60006003838154811061070557fe5b9060005260206000209060030201905060006003838154811061072457fe5b9060005260206000209060030201905061073d82610b9b565b801561074e575061074d81610b9b565b5b156107be57600060026003858154811061076457fe5b9060005260206000209060030201600101546003878154811061078357fe5b906000526020600020906003020160010154018161079d57fe5b0490506107aa8682610bc2565b6107b383610dfe565b6107bc82610dfe565b505b5050505050565b600381815481106107d257fe5b9060005260206000209060030201600091509050806000018054600181600116156101000203166002900480601f01602080910402602001604051908101604052809291908181526020018280546001816001161561010002031660029004801561087e5780601f106108535761010080835404028352916020019161087e565b820191906000526020600020905b81548152906001019060200180831161086157829003601f168201915b5050505050908060010154908060020160009054906101000a900460ff16908060020160019054906101000a900463ffffffff16905084565b6000600660009054906101000a900463ffffffff16905090565b60056020528060005260406000206000915090505481565b6002600560003373ffffffffffffffffffffffffffffffffffffffff1673ffffffffffffffffffffffffffffffffffffffff168152602001908152602001600020541061099e576040517f08c379a00000000000000000000000000000000000000000000000000000000081526004018080602001828103825260168152602001807f5761697420666f722074686520636f6f6c646f776e210000000000000000000081525060200191505060405180910390fd5b671bc16d674ec800003373ffffffffffffffffffffffffffffffffffffffff16311015610a33576040517f08c379a00000000000000000000000000000000000000000000000000000000081526004018080602001828103825260198152602001807f596f7520646f6e2774206861766520656e6f756768204554480000000000000081525060200191505060405180910390fd5b671bc16d674ec800003414610a4757600080fd5b6000600260009054906101000a900473ffffffffffffffffffffffffffffffffffffffff1690508073ffffffffffffffffffffffffffffffffffffffff166108fc349081150290604051600060405180830381858888f19350505050158015610ab4573d6000803e3d6000fd5b506000610ac083610e3e565b9050610acc8382610bc2565b505050565b600260009054906101000a900473ffffffffffffffffffffffffffffffffffffffff1673ffffffffffffffffffffffffffffffffffffffff163373ffffffffffffffffffffffffffffffffffffffff1614610b77576040517f08c379a000000000000000000000000000000000000000000000000000000000815260040180806020018281038252602c815260200180610fa2602c913960400191505060405180910390fd5b80600660006101000a81548163ffffffff021916908363ffffffff16021790555050565b6000428260020160019054906101000a900463ffffffff1663ffffffff1611159050919050565b6000600160036040518060800160405280868152602001858152602001600060ff168152602001600660009054906101000a900463ffffffff1663ffffffff16420163ffffffff16815250908060018154018082558091505090600182039060005260206000209060030201600090919290919091506000820151816000019080519060200190610c54929190610ecc565b506020820151816001015560408201518160020160006101000a81548160ff021916908360ff16021790555060608201518160020160016101000a81548163ffffffff021916908363ffffffff1602179055505050039050336004600083815260200190815260200160002060006101000a81548173ffffffffffffffffffffffffffffffffffffffff021916908373ffffffffffffffffffffffffffffffffffffffff160217905550600560003373ffffffffffffffffffffffffffffffffffffffff1673ffffffffffffffffffffffffffffffffffffffff168152602001908152602001600020600081548092919060010191905055507fa64b6d0dcd584cf22e064bd7e637a7ebc7fe4f635054a8372c1a56b34b2b728b8184846040518084815260200180602001838152602001828103825284818151815260200191508051906020019080838360005b83811015610dbd578082015181840152602081019050610da2565b50505050905090810190601f168015610dea5780820380516001836020036101000a031916815260200191505b5094505050505060405180910390a1505050565b600660009054906101000a900463ffffffff1663ffffffff1642018160020160016101000a81548163ffffffff021916908363ffffffff16021790555050565b600080826040516020018082805190602001908083835b60208310610e785780518252602082019150602081019050602083039250610e55565b6001836020036101000a0380198251168184511680821785525050505050509050019150506040516020818303038152906040528051906020012060001c90506001548181610ec357fe5b06915050919050565b828054600181600116156101000203166002900490600052602060002090601f016020900481019282601f10610f0d57805160ff1916838001178555610f3b565b82800160010185558215610f3b579182015b82811115610f3a578251825591602001919060010190610f1f565b5b509050610f489190610f4c565b5090565b610f6e91905b80821115610f6a576000816000905550600101610f52565b5090565b9056fe4f6e6c79207468652063757272656e74206f776e65722063616e206368616e676520746865206f776e657273686970214f6e6c7920746865206f776e65722063616e206368616e67652074686520636f6f6c646f776e2074696d6521a265627a7a72315820ff63ef2f2f12fe78964fb1c4a6a496828690dd60c33a697cb5a0a67d2570a40d64736f6c634300050c0032",
  "source": "pragma solidity ^0.5.8;\r\n\r\nimport \"./ColaFactory.sol\";\r\n\r\ncontract ColaMixture is ColaFactory {\r\n        modifier onlyOwnerOf(uint _colaId) {\r\n                require(msg.sender == colaToOwner[_colaId]);\r\n                _;\r\n        }\r\n\r\n        function _triggerCooldown(Cola storage _cola) internal {\r\n                _cola.readyTime = uint32(now + cooldownTime);\r\n        }\r\n\r\n        function _isReady(Cola storage _cola) view internal returns(bool) {\r\n                return (_cola.readyTime <= now);\r\n        }\r\n\r\n        function mixCola(string memory _name, uint _colaId1, uint _colaId2) public {\r\n                require(msg.sender == colaToOwner[_colaId1] && msg.sender == colaToOwner[_colaId2], \"You don't own these two colas!\");\r\n                Cola storage cola1 = colas[_colaId1];\r\n                Cola storage cola2 = colas[_colaId2];\r\n                if (_isReady(cola1) && _isReady(cola2)) {\r\n                    uint newColaCode = (colas[_colaId1].code + colas[_colaId2].code) / 2; \r\n                    _produceCola(_name, newColaCode);\r\n                    _triggerCooldown(cola1);\r\n                    _triggerCooldown(cola2);\r\n                }\r\n        }\r\n}\r\n",
  "sourcePath": "/home/procedure2012/Project/CryptoCola/contracts/ColaMixture.sol",
  "compiler": {
    "name": "solc",
    "version": "0.5.12+commit.7709ece9.Emscripten.clang"
  },
  "schemaVersion": "3.0.19",
  "updatedAt": "2020-03-25T17:26:22.332Z",
  "networkType": "ethereum",
  "devdoc": {
    "methods": {}
  },
  "userdoc": {
    "methods": {}
  }
}