{
  "contractName": "ColaPresentation",
  "abi": [
    {
      "anonymous": false,
      "inputs": [
        {
          "indexed": true,
          "internalType": "address",
          "name": "owner",
          "type": "address"
        },
        {
          "indexed": true,
          "internalType": "address",
          "name": "approved",
          "type": "address"
        },
        {
          "indexed": true,
          "internalType": "uint256",
          "name": "tokenId",
          "type": "uint256"
        }
      ],
      "name": "Approval",
      "type": "event"
    },
    {
      "anonymous": false,
      "inputs": [
        {
          "indexed": false,
          "internalType": "uint256",
          "name": "colaId",
          "type": "uint256"
        },
        {
          "indexed": false,
          "internalType": "string",
          "name": "name",
          "type": "string"
        },
        {
          "indexed": false,
          "internalType": "uint256",
          "name": "code",
          "type": "uint256"
        }
      ],
      "name": "NewCola",
      "type": "event"
    },
    {
      "anonymous": false,
      "inputs": [
        {
          "indexed": true,
          "internalType": "address",
          "name": "from",
          "type": "address"
        },
        {
          "indexed": true,
          "internalType": "address",
          "name": "to",
          "type": "address"
        },
        {
          "indexed": true,
          "internalType": "uint256",
          "name": "tokenId",
          "type": "uint256"
        }
      ],
      "name": "Transfer",
      "type": "event"
    },
    {
      "constant": false,
      "inputs": [
        {
          "internalType": "address",
          "name": "_approved",
          "type": "address"
        },
        {
          "internalType": "uint256",
          "name": "_tokenId",
          "type": "uint256"
        }
      ],
      "name": "approve",
      "outputs": [],
      "payable": false,
      "stateMutability": "nonpayable",
      "type": "function"
    },
    {
      "constant": true,
      "inputs": [
        {
          "internalType": "address",
          "name": "_owner",
          "type": "address"
        }
      ],
      "name": "balanceOf",
      "outputs": [
        {
          "internalType": "uint256",
          "name": "_balance",
          "type": "uint256"
        }
      ],
      "payable": false,
      "stateMutability": "view",
      "type": "function"
    },
    {
      "constant": true,
      "inputs": [
        {
          "internalType": "uint256",
          "name": "",
          "type": "uint256"
        }
      ],
      "name": "colaToAuction",
      "outputs": [
        {
          "internalType": "address",
          "name": "seller",
          "type": "address"
        },
        {
          "internalType": "uint256",
          "name": "price",
          "type": "uint256"
        },
        {
          "internalType": "bool",
          "name": "isOn",
          "type": "bool"
        }
      ],
      "payable": false,
      "stateMutability": "view",
      "type": "function"
    },
    {
      "constant": true,
      "inputs": [
        {
          "internalType": "uint256",
          "name": "",
          "type": "uint256"
        }
      ],
      "name": "colaToOwner",
      "outputs": [
        {
          "internalType": "address",
          "name": "",
          "type": "address"
        }
      ],
      "payable": false,
      "stateMutability": "view",
      "type": "function"
    },
    {
      "constant": true,
      "inputs": [
        {
          "internalType": "uint256",
          "name": "",
          "type": "uint256"
        }
      ],
      "name": "colas",
      "outputs": [
        {
          "internalType": "string",
          "name": "name",
          "type": "string"
        },
        {
          "internalType": "uint256",
          "name": "code",
          "type": "uint256"
        },
        {
          "internalType": "uint8",
          "name": "level",
          "type": "uint8"
        },
        {
          "internalType": "uint32",
          "name": "readyTime",
          "type": "uint32"
        }
      ],
      "payable": false,
      "stateMutability": "view",
      "type": "function"
    },
    {
      "constant": true,
      "inputs": [
        {
          "internalType": "uint256",
          "name": "_tokenId",
          "type": "uint256"
        }
      ],
      "name": "getApproved",
      "outputs": [
        {
          "internalType": "address",
          "name": "",
          "type": "address"
        }
      ],
      "payable": false,
      "stateMutability": "view",
      "type": "function"
    },
    {
      "constant": true,
      "inputs": [],
      "name": "getCooldownTime",
      "outputs": [
        {
          "internalType": "uint32",
          "name": "",
          "type": "uint32"
        }
      ],
      "payable": false,
      "stateMutability": "view",
      "type": "function"
    },
    {
      "constant": false,
      "inputs": [
        {
          "internalType": "string",
          "name": "_name",
          "type": "string"
        },
        {
          "internalType": "uint256",
          "name": "_colaId1",
          "type": "uint256"
        },
        {
          "internalType": "uint256",
          "name": "_colaId2",
          "type": "uint256"
        }
      ],
      "name": "mixCola",
      "outputs": [],
      "payable": false,
      "stateMutability": "nonpayable",
      "type": "function"
    },
    {
      "constant": true,
      "inputs": [
        {
          "internalType": "address",
          "name": "",
          "type": "address"
        }
      ],
      "name": "ownerColaCount",
      "outputs": [
        {
          "internalType": "uint256",
          "name": "",
          "type": "uint256"
        }
      ],
      "payable": false,
      "stateMutability": "view",
      "type": "function"
    },
    {
      "constant": true,
      "inputs": [
        {
          "internalType": "uint256",
          "name": "_tokenId",
          "type": "uint256"
        }
      ],
      "name": "ownerOf",
      "outputs": [
        {
          "internalType": "address",
          "name": "_owner",
          "type": "address"
        }
      ],
      "payable": false,
      "stateMutability": "view",
      "type": "function"
    },
    {
      "constant": false,
      "inputs": [
        {
          "internalType": "string",
          "name": "_name",
          "type": "string"
        }
      ],
      "name": "produceRandomCola",
      "outputs": [],
      "payable": true,
      "stateMutability": "payable",
      "type": "function"
    },
    {
      "constant": false,
      "inputs": [
        {
          "internalType": "uint32",
          "name": "_cooldownTime",
          "type": "uint32"
        }
      ],
      "name": "setCooldownTime",
      "outputs": [],
      "payable": false,
      "stateMutability": "nonpayable",
      "type": "function"
    },
    {
      "constant": false,
      "inputs": [
        {
          "internalType": "address",
          "name": "_newOwner",
          "type": "address"
        }
      ],
      "name": "setOwner",
      "outputs": [],
      "payable": false,
      "stateMutability": "nonpayable",
      "type": "function"
    },
    {
      "constant": false,
      "inputs": [
        {
          "internalType": "uint256",
          "name": "_tokenId",
          "type": "uint256"
        }
      ],
      "name": "takeOwnership",
      "outputs": [],
      "payable": false,
      "stateMutability": "nonpayable",
      "type": "function"
    },
    {
      "constant": false,
      "inputs": [
        {
          "internalType": "address",
          "name": "_from",
          "type": "address"
        },
        {
          "internalType": "address",
          "name": "_to",
          "type": "address"
        },
        {
          "internalType": "uint256",
          "name": "_tokenId",
          "type": "uint256"
        }
      ],
      "name": "transferFrom",
      "outputs": [],
      "payable": false,
      "stateMutability": "nonpayable",
      "type": "function"
    },
    {
      "constant": true,
      "inputs": [
        {
          "internalType": "address",
          "name": "_owner",
          "type": "address"
        }
      ],
      "name": "getCountByOwner",
      "outputs": [
        {
          "internalType": "uint256",
          "name": "",
          "type": "uint256"
        }
      ],
      "payable": false,
      "stateMutability": "view",
      "type": "function"
    },
    {
      "constant": true,
      "inputs": [
        {
          "internalType": "address",
          "name": "_owner",
          "type": "address"
        }
      ],
      "name": "getColaByOwner",
      "outputs": [
        {
          "internalType": "uint256[]",
          "name": "",
          "type": "uint256[]"
        }
      ],
      "payable": false,
      "stateMutability": "view",
      "type": "function"
    },
    {
      "constant": true,
      "inputs": [],
      "name": "getColaMarket",
      "outputs": [
        {
          "internalType": "uint256[]",
          "name": "",
          "type": "uint256[]"
        }
      ],
      "payable": false,
      "stateMutability": "view",
      "type": "function"
    },
    {
      "constant": false,
      "inputs": [
        {
          "internalType": "uint256",
          "name": "_colaId",
          "type": "uint256"
        },
        {
          "internalType": "uint256",
          "name": "_price",
          "type": "uint256"
        }
      ],
      "name": "sellCola",
      "outputs": [],
      "payable": false,
      "stateMutability": "nonpayable",
      "type": "function"
    },
    {
      "constant": false,
      "inputs": [
        {
          "internalType": "uint256",
          "name": "_colaId",
          "type": "uint256"
        }
      ],
      "name": "cancelSellCola",
      "outputs": [],
      "payable": false,
      "stateMutability": "nonpayable",
      "type": "function"
    },
    {
      "constant": false,
      "inputs": [
        {
          "internalType": "uint256",
          "name": "_colaId",
          "type": "uint256"
        }
      ],
      "name": "buyCola",
      "outputs": [],
      "payable": true,
      "stateMutability": "payable",
      "type": "function"
    }
  ],
  "bytecode": "0x60806040526010600055600054600a0a600155736d849ead5d243124a1c50b88011439757965e7ae600260006101000a81548173ffffffffffffffffffffffffffffffffffffffff021916908373ffffffffffffffffffffffffffffffffffffffff160217905550603c600660006101000a81548163ffffffff021916908363ffffffff16021790555034801561009557600080fd5b5061272c806100a56000396000f3fe60806040526004361061012a5760003560e01c80636aba56e9116100ab578063afd9b9001161006f578063afd9b900146107ba578063b2e6ceeb14610875578063c7616ae3146108b0578063cd9e9383146108f1578063edd963ac14610997578063f94a866b146109fc5761012a565b80636aba56e91461065057806370a082311461068b5780638f2a02b4146106f05780639ab89838146107275780639dcc9904146107555761012a565b806335e2e27a116100f257806335e2e27a1461034c5780633eb082291461042857806356077b091461046d5780636352211e146104fa578063658e2308146105755761012a565b806301c3fe671461012f578063081812fc146101aa578063095ea7b31461022557806313af40351461028057806323b872dd146102d1575b600080fd5b34801561013b57600080fd5b506101686004803603602081101561015257600080fd5b8101908080359060200190929190505050610a68565b604051808273ffffffffffffffffffffffffffffffffffffffff1673ffffffffffffffffffffffffffffffffffffffff16815260200191505060405180910390f35b3480156101b657600080fd5b506101e3600480360360208110156101cd57600080fd5b8101908080359060200190929190505050610a9b565b604051808273ffffffffffffffffffffffffffffffffffffffff1673ffffffffffffffffffffffffffffffffffffffff16815260200191505060405180910390f35b34801561023157600080fd5b5061027e6004803603604081101561024857600080fd5b81019080803573ffffffffffffffffffffffffffffffffffffffff16906020019092919080359060200190929190505050610ad8565b005b34801561028c57600080fd5b506102cf600480360360208110156102a357600080fd5b81019080803573ffffffffffffffffffffffffffffffffffffffff169060200190929190505050610bf4565b005b3480156102dd57600080fd5b5061034a600480360360608110156102f457600080fd5b81019080803573ffffffffffffffffffffffffffffffffffffffff169060200190929190803573ffffffffffffffffffffffffffffffffffffffff16906020019092919080359060200190929190505050610cde565b005b34801561035857600080fd5b506104266004803603606081101561036f57600080fd5b810190808035906020019064010000000081111561038c57600080fd5b82018360208201111561039e57600080fd5b803590602001918460018302840111640100000000831117156103c057600080fd5b91908080601f016020809104026020016040519081016040528093929190818152602001838380828437600081840152601f19601f8201169050808301925050505050505091929192908035906020019092919080359060200190929190505050610f5d565b005b34801561043457600080fd5b5061046b6004803603604081101561044b57600080fd5b81019080803590602001909291908035906020019092919050505061116a565b005b34801561047957600080fd5b506104a66004803603602081101561049057600080fd5b8101908080359060200190929190505050611312565b604051808473ffffffffffffffffffffffffffffffffffffffff1673ffffffffffffffffffffffffffffffffffffffff16815260200183815260200182151515158152602001935050505060405180910390f35b34801561050657600080fd5b506105336004803603602081101561051d57600080fd5b8101908080359060200190929190505050611369565b604051808273ffffffffffffffffffffffffffffffffffffffff1673ffffffffffffffffffffffffffffffffffffffff16815260200191505060405180910390f35b34801561058157600080fd5b506105ae6004803603602081101561059857600080fd5b81019080803590602001909291905050506113a6565b60405180806020018581526020018460ff1660ff1681526020018363ffffffff1663ffffffff168152602001828103825286818151815260200191508051906020019080838360005b838110156106125780820151818401526020810190506105f7565b50505050905090810190601f16801561063f5780820380516001836020036101000a031916815260200191505b509550505050505060405180910390f35b34801561065c57600080fd5b506106896004803603602081101561067357600080fd5b8101908080359060200190929190505050611498565b005b34801561069757600080fd5b506106da600480360360208110156106ae57600080fd5b81019080803573ffffffffffffffffffffffffffffffffffffffff169060200190929190505050611613565b6040518082815260200191505060405180910390f35b3480156106fc57600080fd5b5061070561165c565b604051808263ffffffff1663ffffffff16815260200191505060405180910390f35b6107536004803603602081101561073d57600080fd5b8101908080359060200190929190505050611676565b005b34801561076157600080fd5b506107a46004803603602081101561077857600080fd5b81019080803573ffffffffffffffffffffffffffffffffffffffff1690602001909291905050506118b5565b6040518082815260200191505060405180910390f35b610873600480360360208110156107d057600080fd5b81019080803590602001906401000000008111156107ed57600080fd5b8201836020820111156107ff57600080fd5b8035906020019184600183028401116401000000008311171561082157600080fd5b91908080601f016020809104026020016040519081016040528093929190818152602001838380828437600081840152601f19601f8201169050808301925050505050505091929192905050506118cd565b005b34801561088157600080fd5b506108ae6004803603602081101561089857600080fd5b8101908080359060200190929190505050611ab5565b005b3480156108bc57600080fd5b506108ef600480360360208110156108d357600080fd5b81019080803563ffffffff169060200190929190505050611b36565b005b3480156108fd57600080fd5b506109406004803603602081101561091457600080fd5b81019080803573ffffffffffffffffffffffffffffffffffffffff169060200190929190505050611c00565b6040518080602001828103825283818151815260200191508051906020019060200280838360005b83811015610983578082015181840152602081019050610968565b505050509050019250505060405180910390f35b3480156109a357600080fd5b506109e6600480360360208110156109ba57600080fd5b81019080803573ffffffffffffffffffffffffffffffffffffffff169060200190929190505050611e9e565b6040518082815260200191505060405180910390f35b348015610a0857600080fd5b50610a11611fcc565b6040518080602001828103825283818151815260200191508051906020019060200280838360005b83811015610a54578082015181840152602081019050610a39565b505050509050019250505060405180910390f35b60046020528060005260406000206000915054906101000a900473ffffffffffffffffffffffffffffffffffffffff1681565b60006007600083815260200190815260200160002060009054906101000a900473ffffffffffffffffffffffffffffffffffffffff169050919050565b6004600082815260200190815260200160002060009054906101000a900473ffffffffffffffffffffffffffffffffffffffff1673ffffffffffffffffffffffffffffffffffffffff163373ffffffffffffffffffffffffffffffffffffffff1614610b4357600080fd5b816007600083815260200190815260200160002060006101000a81548173ffffffffffffffffffffffffffffffffffffffff021916908373ffffffffffffffffffffffffffffffffffffffff160217905550808273ffffffffffffffffffffffffffffffffffffffff163373ffffffffffffffffffffffffffffffffffffffff167f8c5be1e5ebec7d5bd14f71427d1e84f3dd0314c0f7b2291e5b200ac8c7c3b92560405160405180910390a45050565b600260009054906101000a900473ffffffffffffffffffffffffffffffffffffffff1673ffffffffffffffffffffffffffffffffffffffff163373ffffffffffffffffffffffffffffffffffffffff1614610c9a576040517f08c379a000000000000000000000000000000000000000000000000000000000815260040180806020018281038252603081526020018061269c6030913960400191505060405180910390fd5b80600260006101000a81548173ffffffffffffffffffffffffffffffffffffffff021916908373ffffffffffffffffffffffffffffffffffffffff16021790555050565b3073ffffffffffffffffffffffffffffffffffffffff168373ffffffffffffffffffffffffffffffffffffffff161480610d7657506004600082815260200190815260200160002060009054906101000a900473ffffffffffffffffffffffffffffffffffffffff1673ffffffffffffffffffffffffffffffffffffffff163373ffffffffffffffffffffffffffffffffffffffff16145b610d7f57600080fd5b610dd26001600560008573ffffffffffffffffffffffffffffffffffffffff1673ffffffffffffffffffffffffffffffffffffffff168152602001908152602001600020546120bc90919063ffffffff16565b600560008473ffffffffffffffffffffffffffffffffffffffff1673ffffffffffffffffffffffffffffffffffffffff16815260200190815260200160002081905550610e686001600560008673ffffffffffffffffffffffffffffffffffffffff1673ffffffffffffffffffffffffffffffffffffffff1681526020019081526020016000205461214490919063ffffffff16565b600560008573ffffffffffffffffffffffffffffffffffffffff1673ffffffffffffffffffffffffffffffffffffffff16815260200190815260200160002081905550816004600083815260200190815260200160002060006101000a81548173ffffffffffffffffffffffffffffffffffffffff021916908373ffffffffffffffffffffffffffffffffffffffff160217905550808273ffffffffffffffffffffffffffffffffffffffff168473ffffffffffffffffffffffffffffffffffffffff167fddf252ad1be2c89b69c2b068fc378daa952ba7f163c4a11628f55a4df523b3ef60405160405180910390a4505050565b6004600083815260200190815260200160002060009054906101000a900473ffffffffffffffffffffffffffffffffffffffff1673ffffffffffffffffffffffffffffffffffffffff163373ffffffffffffffffffffffffffffffffffffffff1614801561102957506004600082815260200190815260200160002060009054906101000a900473ffffffffffffffffffffffffffffffffffffffff1673ffffffffffffffffffffffffffffffffffffffff163373ffffffffffffffffffffffffffffffffffffffff16145b61109b576040517f08c379a000000000000000000000000000000000000000000000000000000000815260040180806020018281038252601e8152602001807f596f7520646f6e2774206f776e2074686573652074776f20636f6c617321000081525060200191505060405180910390fd5b6000600383815481106110aa57fe5b906000526020600020906003020190506000600383815481106110c957fe5b906000526020600020906003020190506110e28261218e565b80156110f357506110f28161218e565b5b1561116357600060026003858154811061110957fe5b9060005260206000209060030201600101546003878154811061112857fe5b906000526020600020906003020160010154018161114257fe5b04905061114f86826121b5565b611158836123f1565b611161826123f1565b505b5050505050565b6004600083815260200190815260200160002060009054906101000a900473ffffffffffffffffffffffffffffffffffffffff1673ffffffffffffffffffffffffffffffffffffffff163373ffffffffffffffffffffffffffffffffffffffff161461123e576040517f08c379a000000000000000000000000000000000000000000000000000000000815260040180806020018281038252601a8152602001807f596f7520646f6e206e6f74206f776e207468697320636f6c612100000000000081525060200191505060405180910390fd5b60405180606001604052803373ffffffffffffffffffffffffffffffffffffffff168152602001670de0b6b3a764000083028152602001600115158152506008600084815260200190815260200160002060008201518160000160006101000a81548173ffffffffffffffffffffffffffffffffffffffff021916908373ffffffffffffffffffffffffffffffffffffffff1602179055506020820151816001015560408201518160020160006101000a81548160ff02191690831515021790555090505061130e333084610cde565b5050565b60086020528060005260406000206000915090508060000160009054906101000a900473ffffffffffffffffffffffffffffffffffffffff16908060010154908060020160009054906101000a900460ff16905083565b60006004600083815260200190815260200160002060009054906101000a900473ffffffffffffffffffffffffffffffffffffffff169050919050565b600381815481106113b357fe5b9060005260206000209060030201600091509050806000018054600181600116156101000203166002900480601f01602080910402602001604051908101604052809291908181526020018280546001816001161561010002031660029004801561145f5780601f106114345761010080835404028352916020019161145f565b820191906000526020600020905b81548152906001019060200180831161144257829003601f168201915b5050505050908060010154908060020160009054906101000a900460ff16908060020160019054906101000a900463ffffffff16905084565b6114b360086000838152602001908152602001600020612431565b611525576040517f08c379a000000000000000000000000000000000000000000000000000000000815260040180806020018281038252601a8152602001807f5468697320636f6c61206973206e6f7420666f722073616c652100000000000081525060200191505060405180910390fd5b6008600082815260200190815260200160002060000160009054906101000a900473ffffffffffffffffffffffffffffffffffffffff1673ffffffffffffffffffffffffffffffffffffffff163373ffffffffffffffffffffffffffffffffffffffff16146115fc576040517f08c379a000000000000000000000000000000000000000000000000000000000815260040180806020018281038252601a8152602001807f596f7520646f6e206e6f74206f776e207468697320636f6c612100000000000081525060200191505060405180910390fd5b611607303383610cde565b6116108161244c565b50565b6000600560008373ffffffffffffffffffffffffffffffffffffffff1673ffffffffffffffffffffffffffffffffffffffff168152602001908152602001600020549050919050565b6000600660009054906101000a900463ffffffff16905090565b61169160086000838152602001908152602001600020612431565b611703576040517f08c379a000000000000000000000000000000000000000000000000000000000815260040180806020018281038252601a8152602001807f5468697320636f6c61206973206e6f7420666f722073616c652100000000000081525060200191505060405180910390fd5b6008600082815260200190815260200160002060010154341461178e576040517f08c379a00000000000000000000000000000000000000000000000000000000081526004018080602001828103825260138152602001807f5468652070726963652069732077726f6e67210000000000000000000000000081525060200191505060405180910390fd5b3373ffffffffffffffffffffffffffffffffffffffff163134111561181b576040517f08c379a000000000000000000000000000000000000000000000000000000000815260040180806020018281038252601c8152602001807f596f7520646f6e2774206861766520656e6f756768206d6f6e6579210000000081525060200191505060405180910390fd5b60006008600083815260200190815260200160002060000160009054906101000a900473ffffffffffffffffffffffffffffffffffffffff1690508073ffffffffffffffffffffffffffffffffffffffff166108fc349081150290604051600060405180830381858888f1935050505015801561189c573d6000803e3d6000fd5b506118a8303384610cde565b6118b18261244c565b5050565b60056020528060005260406000206000915090505481565b6002600560003373ffffffffffffffffffffffffffffffffffffffff1673ffffffffffffffffffffffffffffffffffffffff1681526020019081526020016000205410611982576040517f08c379a00000000000000000000000000000000000000000000000000000000081526004018080602001828103825260168152602001807f5761697420666f722074686520636f6f6c646f776e210000000000000000000081525060200191505060405180910390fd5b671bc16d674ec800003373ffffffffffffffffffffffffffffffffffffffff16311015611a17576040517f08c379a00000000000000000000000000000000000000000000000000000000081526004018080602001828103825260198152602001807f596f7520646f6e2774206861766520656e6f756768204554480000000000000081525060200191505060405180910390fd5b671bc16d674ec800003414611a2b57600080fd5b6000600260009054906101000a900473ffffffffffffffffffffffffffffffffffffffff1690508073ffffffffffffffffffffffffffffffffffffffff166108fc349081150290604051600060405180830381858888f19350505050158015611a98573d6000803e3d6000fd5b506000611aa4836124a8565b9050611ab083826121b5565b505050565b6007600082815260200190815260200160002060009054906101000a900473ffffffffffffffffffffffffffffffffffffffff1673ffffffffffffffffffffffffffffffffffffffff163373ffffffffffffffffffffffffffffffffffffffff1614611b2057600080fd5b611b33611b2c82611369565b3383610cde565b50565b600260009054906101000a900473ffffffffffffffffffffffffffffffffffffffff1673ffffffffffffffffffffffffffffffffffffffff163373ffffffffffffffffffffffffffffffffffffffff1614611bdc576040517f08c379a000000000000000000000000000000000000000000000000000000000815260040180806020018281038252602c8152602001806126cc602c913960400191505060405180910390fd5b80600660006101000a81548163ffffffff021916908363ffffffff16021790555050565b6060600080905060008090505b600380549050811015611d24578373ffffffffffffffffffffffffffffffffffffffff166004600083815260200190815260200160002060009054906101000a900473ffffffffffffffffffffffffffffffffffffffff1673ffffffffffffffffffffffffffffffffffffffff161480611d0b5750611c9d60086000838152602001908152602001600020612431565b8015611d0a57508373ffffffffffffffffffffffffffffffffffffffff166008600083815260200190815260200160002060000160009054906101000a900473ffffffffffffffffffffffffffffffffffffffff1673ffffffffffffffffffffffffffffffffffffffff16145b5b15611d195781806001019250505b806001019050611c0d565b50606081604051908082528060200260200182016040528015611d565781602001602082028038833980820191505090505b5090506000915060008090505b600380549050811015611e93578473ffffffffffffffffffffffffffffffffffffffff166004600083815260200190815260200160002060009054906101000a900473ffffffffffffffffffffffffffffffffffffffff1673ffffffffffffffffffffffffffffffffffffffff161480611e615750611df360086000838152602001908152602001600020612431565b8015611e6057508473ffffffffffffffffffffffffffffffffffffffff166008600083815260200190815260200160002060000160009054906101000a900473ffffffffffffffffffffffffffffffffffffffff1673ffffffffffffffffffffffffffffffffffffffff16145b5b15611e885780828481518110611e7357fe5b60200260200101818152505082806001019350505b806001019050611d63565b508092505050919050565b6000806000905060008090505b600380549050811015611fc2578373ffffffffffffffffffffffffffffffffffffffff166004600083815260200190815260200160002060009054906101000a900473ffffffffffffffffffffffffffffffffffffffff1673ffffffffffffffffffffffffffffffffffffffff161480611fa95750611f3b60086000838152602001908152602001600020612431565b8015611fa857508373ffffffffffffffffffffffffffffffffffffffff166008600083815260200190815260200160002060000160009054906101000a900473ffffffffffffffffffffffffffffffffffffffff1673ffffffffffffffffffffffffffffffffffffffff16145b5b15611fb75781806001019250505b806001019050611eab565b5080915050919050565b6060600080905060008090505b60038054905081101561201a5761200160086000838152602001908152602001600020612431565b1561200f5781806001019250505b806001019050611fd9565b5060608160405190808252806020026020018201604052801561204c5781602001602082028038833980820191505090505b5090506000915060008090505b6003805490508110156120b35761208160086000838152602001908152602001600020612431565b156120a8578082848151811061209357fe5b60200260200101818152505082806001019350505b806001019050612059565b50809250505090565b60008082840190508381101561213a576040517f08c379a000000000000000000000000000000000000000000000000000000000815260040180806020018281038252601b8152602001807f536166654d6174683a206164646974696f6e206f766572666c6f77000000000081525060200191505060405180910390fd5b8091505092915050565b600061218683836040518060400160405280601e81526020017f536166654d6174683a207375627472616374696f6e206f766572666c6f770000815250612536565b905092915050565b6000428260020160019054906101000a900463ffffffff1663ffffffff1611159050919050565b6000600160036040518060800160405280868152602001858152602001600060ff168152602001600660009054906101000a900463ffffffff1663ffffffff16420163ffffffff168152509080600181540180825580915050906001820390600052602060002090600302016000909192909190915060008201518160000190805190602001906122479291906125f6565b506020820151816001015560408201518160020160006101000a81548160ff021916908360ff16021790555060608201518160020160016101000a81548163ffffffff021916908363ffffffff1602179055505050039050336004600083815260200190815260200160002060006101000a81548173ffffffffffffffffffffffffffffffffffffffff021916908373ffffffffffffffffffffffffffffffffffffffff160217905550600560003373ffffffffffffffffffffffffffffffffffffffff1673ffffffffffffffffffffffffffffffffffffffff168152602001908152602001600020600081548092919060010191905055507fa64b6d0dcd584cf22e064bd7e637a7ebc7fe4f635054a8372c1a56b34b2b728b8184846040518084815260200180602001838152602001828103825284818151815260200191508051906020019080838360005b838110156123b0578082015181840152602081019050612395565b50505050905090810190601f1680156123dd5780820380516001836020036101000a031916815260200191505b5094505050505060405180910390a1505050565b600660009054906101000a900463ffffffff1663ffffffff1642018160020160016101000a81548163ffffffff021916908363ffffffff16021790555050565b60008160020160009054906101000a900460ff169050919050565b60086000828152602001908152602001600020600080820160006101000a81549073ffffffffffffffffffffffffffffffffffffffff021916905560018201600090556002820160006101000a81549060ff0219169055505050565b600080826040516020018082805190602001908083835b602083106124e257805182526020820191506020810190506020830392506124bf565b6001836020036101000a0380198251168184511680821785525050505050509050019150506040516020818303038152906040528051906020012060001c9050600154818161252d57fe5b06915050919050565b60008383111582906125e3576040517f08c379a00000000000000000000000000000000000000000000000000000000081526004018080602001828103825283818151815260200191508051906020019080838360005b838110156125a857808201518184015260208101905061258d565b50505050905090810190601f1680156125d55780820380516001836020036101000a031916815260200191505b509250505060405180910390fd5b5060008385039050809150509392505050565b828054600181600116156101000203166002900490600052602060002090601f016020900481019282601f1061263757805160ff1916838001178555612665565b82800160010185558215612665579182015b82811115612664578251825591602001919060010190612649565b5b5090506126729190612676565b5090565b61269891905b8082111561269457600081600090555060010161267c565b5090565b9056fe4f6e6c79207468652063757272656e74206f776e65722063616e206368616e676520746865206f776e657273686970214f6e6c7920746865206f776e65722063616e206368616e67652074686520636f6f6c646f776e2074696d6521a265627a7a72315820b2d573013c7ee609b7f6b6d69d65ac3b48a294e3ce4f0996254ffa26821c437864736f6c634300050c0032",
  "source": "pragma solidity ^0.5.8;\r\n\r\nimport \"./ColaOwnership.sol\";\r\n\r\ncontract ColaPresentation is ColaOwnership {\r\n\tstruct Auction {\r\n\t\taddress seller;\r\n\t\tuint price;\r\n\t\tbool isOn;\r\n\t}\r\n\r\n\tmapping (uint => Auction) public colaToAuction;\r\n\r\n\tfunction isOnAuction(Auction storage _auction) internal view returns(bool) {\r\n\t\treturn _auction.isOn;\r\n\t}\r\n\r\n\tfunction removeAuction(uint _colaId) internal {\r\n\t\tdelete colaToAuction[_colaId];\r\n\t}\r\n\r\n\tfunction getCountByOwner(address _owner) public view returns(uint) {\r\n\t\tuint count = 0;\r\n\t\tfor (uint i = 0; i < colas.length; ++i) \r\n\t\t\tif ((colaToOwner[i] == _owner) || ((isOnAuction(colaToAuction[i])) && (colaToAuction[i].seller == _owner)))\r\n\t\t\t\tcount++;\r\n\t\treturn count;\r\n\t}\r\n\r\n    function getColaByOwner(address _owner) public view returns(uint[] memory) {\r\n\t\tuint count = 0;\r\n        for (uint i = 0; i < colas.length; ++i) \r\n            if ((colaToOwner[i] == _owner) || (isOnAuction(colaToAuction[i]) && (colaToAuction[i].seller == _owner))) \r\n\t\t\t\tcount++;\r\n\t\tuint[] memory result = new uint[](count);\r\n\t\tcount = 0;\r\n\t\tfor (uint i = 0; i < colas.length; ++i) \r\n            if ((colaToOwner[i] == _owner) || (isOnAuction(colaToAuction[i]) && (colaToAuction[i].seller == _owner))) {\r\n\t\t\t\tresult[count] = i;\r\n\t\t\t\tcount++;\r\n            }\r\n\t\treturn result;\r\n    }\r\n        \r\n    function getColaMarket() public view returns(uint[] memory) {\r\n\t\tuint count = 0;\r\n        for (uint i = 0; i < colas.length; ++i) \r\n            if (isOnAuction(colaToAuction[i])) count++;\r\n\t\tuint[] memory result = new uint[](count);\r\n\t\tcount = 0;\r\n\t\tfor (uint i = 0; i < colas.length; ++i)\r\n\t\t\tif (isOnAuction(colaToAuction[i])){\r\n\t\t\t\tresult[count] = i;\r\n\t\t\t\tcount++;\r\n\t\t\t}\r\n\t\treturn result;\r\n    }\r\n\r\n    function sellCola(uint _colaId, uint _price) external {\r\n        require(msg.sender == colaToOwner[_colaId], \"You don not own this cola!\");\r\n\t\tcolaToAuction[_colaId] = Auction(msg.sender, _price*10**18, true);\r\n\t\ttransferFrom(msg.sender, address(this), _colaId);\r\n    }\r\n\r\n\tfunction cancelSellCola(uint _colaId) external {\r\n\t\trequire(isOnAuction(colaToAuction[_colaId]), \"This cola is not for sale!\");\r\n\t\trequire(msg.sender == colaToAuction[_colaId].seller, \"You don not own this cola!\");\r\n\t\ttransferFrom(address(this), msg.sender, _colaId);\r\n\t\tremoveAuction(_colaId);\r\n\t}\r\n\r\n    function buyCola(uint _colaId) external payable {\r\n\t\trequire(isOnAuction(colaToAuction[_colaId]), \"This cola is not for sale!\");\r\n\t\trequire(msg.value == colaToAuction[_colaId].price, \"The price is wrong!\");\r\n\t\trequire(msg.value <= msg.sender.balance, \"You don't have enough money!\");\r\n        address payable seller = address(uint160(colaToAuction[_colaId].seller));\r\n        seller.transfer(msg.value);\r\n\t\ttransferFrom(address(this), msg.sender, _colaId);\r\n\t\tremoveAuction(_colaId);\r\n    }\r\n}\r\n",
  "sourcePath": "/home/procedure2012/Project/CryptoCola/contracts/ColaPresentation.sol",
  "compiler": {
    "name": "solc",
    "version": "0.5.12+commit.7709ece9.Emscripten.clang"
  },
  "schemaVersion": "3.0.19",
  "updatedAt": "2020-03-25T17:26:22.950Z",
  "networkType": "ethereum",
  "devdoc": {
    "methods": {}
  },
  "userdoc": {
    "methods": {}
  }
}