{
  "contractName": "ColaMixture",
  "abi": [
    {
      "anonymous": false,
      "inputs": [
        {
          "indexed": false,
          "internalType": "uint256",
          "name": "colaId",
          "type": "uint256"
        },
        {
          "indexed": false,
          "internalType": "string",
          "name": "name",
          "type": "string"
        },
        {
          "indexed": false,
          "internalType": "uint256",
          "name": "code",
          "type": "uint256"
        }
      ],
      "name": "NewCola",
      "type": "event"
    },
    {
      "constant": true,
      "inputs": [
        {
          "internalType": "uint256",
          "name": "",
          "type": "uint256"
        }
      ],
      "name": "colaToOwner",
      "outputs": [
        {
          "internalType": "address",
          "name": "",
          "type": "address"
        }
      ],
      "payable": false,
      "stateMutability": "view",
      "type": "function"
    },
    {
      "constant": true,
      "inputs": [
        {
          "internalType": "uint256",
          "name": "",
          "type": "uint256"
        }
      ],
      "name": "colas",
      "outputs": [
        {
          "internalType": "string",
          "name": "name",
          "type": "string"
        },
        {
          "internalType": "uint256",
          "name": "code",
          "type": "uint256"
        },
        {
          "internalType": "uint8",
          "name": "level",
          "type": "uint8"
        },
        {
          "internalType": "uint32",
          "name": "readyTime",
          "type": "uint32"
        }
      ],
      "payable": false,
      "stateMutability": "view",
      "type": "function"
    },
    {
      "constant": true,
      "inputs": [],
      "name": "getCooldownTime",
      "outputs": [
        {
          "internalType": "uint32",
          "name": "",
          "type": "uint32"
        }
      ],
      "payable": false,
      "stateMutability": "view",
      "type": "function"
    },
    {
      "constant": true,
      "inputs": [
        {
          "internalType": "address",
          "name": "",
          "type": "address"
        }
      ],
      "name": "ownerColaCount",
      "outputs": [
        {
          "internalType": "uint256",
          "name": "",
          "type": "uint256"
        }
      ],
      "payable": false,
      "stateMutability": "view",
      "type": "function"
    },
    {
      "constant": false,
      "inputs": [
        {
          "internalType": "string",
          "name": "_name",
          "type": "string"
        }
      ],
      "name": "produceRandomCola",
      "outputs": [],
      "payable": false,
      "stateMutability": "nonpayable",
      "type": "function"
    },
    {
      "constant": false,
      "inputs": [
        {
          "internalType": "uint32",
          "name": "_cooldownTime",
          "type": "uint32"
        }
      ],
      "name": "setCooldownTime",
      "outputs": [],
      "payable": false,
      "stateMutability": "nonpayable",
      "type": "function"
    },
    {
      "constant": false,
      "inputs": [
        {
          "internalType": "string",
          "name": "_name",
          "type": "string"
        },
        {
          "internalType": "uint256",
          "name": "_colaId1",
          "type": "uint256"
        },
        {
          "internalType": "uint256",
          "name": "_colaId2",
          "type": "uint256"
        }
      ],
      "name": "mixCola",
      "outputs": [],
      "payable": false,
      "stateMutability": "nonpayable",
      "type": "function"
    }
  ],
  "bytecode": "0x60806040526010600055600054600a0a6001556000600360006101000a81548163ffffffff021916908363ffffffff160217905550603c600660006101000a81548163ffffffff021916908363ffffffff16021790555034801561006257600080fd5b50610b8e806100726000396000f3fe608060405234801561001057600080fd5b506004361061007d5760003560e01c80638f2a02b41161005b5780638f2a02b41461028d5780639dcc9904146102b7578063afd9b9001461030f578063c7616ae3146103ca5761007d565b806301c3fe671461008257806335e2e27a146100f0578063658e2308146101bf575b600080fd5b6100ae6004803603602081101561009857600080fd5b81019080803590602001909291905050506103fe565b604051808273ffffffffffffffffffffffffffffffffffffffff1673ffffffffffffffffffffffffffffffffffffffff16815260200191505060405180910390f35b6101bd6004803603606081101561010657600080fd5b810190808035906020019064010000000081111561012357600080fd5b82018360208201111561013557600080fd5b8035906020019184600183028401116401000000008311171561015757600080fd5b91908080601f016020809104026020016040519081016040528093929190818152602001838380828437600081840152601f19601f8201169050808301925050505050505091929192908035906020019092919080359060200190929190505050610431565b005b6101eb600480360360208110156101d557600080fd5b81019080803590602001909291905050506105d4565b60405180806020018581526020018460ff1660ff1681526020018363ffffffff1663ffffffff168152602001828103825286818151815260200191508051906020019080838360005b8381101561024f578082015181840152602081019050610234565b50505050905090810190601f16801561027c5780820380516001836020036101000a031916815260200191505b509550505050505060405180910390f35b6102956106c6565b604051808263ffffffff1663ffffffff16815260200191505060405180910390f35b6102f9600480360360208110156102cd57600080fd5b81019080803573ffffffffffffffffffffffffffffffffffffffff1690602001909291905050506106e0565b6040518082815260200191505060405180910390f35b6103c86004803603602081101561032557600080fd5b810190808035906020019064010000000081111561034257600080fd5b82018360208201111561035457600080fd5b8035906020019184600183028401116401000000008311171561037657600080fd5b91908080601f016020809104026020016040519081016040528093929190818152602001838380828437600081840152601f19601f8201169050808301925050505050505091929192905050506106f8565b005b6103fc600480360360208110156103e057600080fd5b81019080803563ffffffff16906020019092919050505061075f565b005b60046020528060005260406000206000915054906101000a900473ffffffffffffffffffffffffffffffffffffffff1681565b6004600083815260200190815260200160002060009054906101000a900473ffffffffffffffffffffffffffffffffffffffff1673ffffffffffffffffffffffffffffffffffffffff163373ffffffffffffffffffffffffffffffffffffffff161480156104fd57506004600082815260200190815260200160002060009054906101000a900473ffffffffffffffffffffffffffffffffffffffff1673ffffffffffffffffffffffffffffffffffffffff163373ffffffffffffffffffffffffffffffffffffffff16145b61050657600080fd5b60006002838154811061051557fe5b9060005260206000209060030201905060006002838154811061053457fe5b9060005260206000209060030201905061054d82610783565b801561055e575061055d81610783565b5b156105cd576000600280858154811061057357fe5b9060005260206000209060030201600101546002878154811061059257fe5b90600052602060002090600302016001015401816105ac57fe5b0490506105b986826107aa565b6105c2836109e6565b6105cb826109e6565b505b5050505050565b600281815481106105e157fe5b9060005260206000209060030201600091509050806000018054600181600116156101000203166002900480601f01602080910402602001604051908101604052809291908181526020018280546001816001161561010002031660029004801561068d5780601f106106625761010080835404028352916020019161068d565b820191906000526020600020905b81548152906001019060200180831161067057829003601f168201915b5050505050908060010154908060020160009054906101000a900460ff16908060020160019054906101000a900463ffffffff16905084565b6000600660009054906101000a900463ffffffff16905090565b60056020528060005260406000206000915090505481565b6002600560003373ffffffffffffffffffffffffffffffffffffffff1673ffffffffffffffffffffffffffffffffffffffff168152602001908152602001600020541061074457600080fd5b600061074f82610a26565b905061075b82826107aa565b5050565b80600660006101000a81548163ffffffff021916908363ffffffff16021790555050565b6000428260020160019054906101000a900463ffffffff1663ffffffff1611159050919050565b6000600160026040518060800160405280868152602001858152602001600060ff168152602001600660009054906101000a900463ffffffff1663ffffffff16420163ffffffff1681525090806001815401808255809150509060018203906000526020600020906003020160009091929091909150600082015181600001908051906020019061083c929190610ab4565b506020820151816001015560408201518160020160006101000a81548160ff021916908360ff16021790555060608201518160020160016101000a81548163ffffffff021916908363ffffffff1602179055505050039050336004600083815260200190815260200160002060006101000a81548173ffffffffffffffffffffffffffffffffffffffff021916908373ffffffffffffffffffffffffffffffffffffffff160217905550600560003373ffffffffffffffffffffffffffffffffffffffff1673ffffffffffffffffffffffffffffffffffffffff168152602001908152602001600020600081548092919060010191905055507fa64b6d0dcd584cf22e064bd7e637a7ebc7fe4f635054a8372c1a56b34b2b728b8184846040518084815260200180602001838152602001828103825284818151815260200191508051906020019080838360005b838110156109a557808201518184015260208101905061098a565b50505050905090810190601f1680156109d25780820380516001836020036101000a031916815260200191505b5094505050505060405180910390a1505050565b600660009054906101000a900463ffffffff1663ffffffff1642018160020160016101000a81548163ffffffff021916908363ffffffff16021790555050565b600080826040516020018082805190602001908083835b60208310610a605780518252602082019150602081019050602083039250610a3d565b6001836020036101000a0380198251168184511680821785525050505050509050019150506040516020818303038152906040528051906020012060001c90506001548181610aab57fe5b06915050919050565b828054600181600116156101000203166002900490600052602060002090601f016020900481019282601f10610af557805160ff1916838001178555610b23565b82800160010185558215610b23579182015b82811115610b22578251825591602001919060010190610b07565b5b509050610b309190610b34565b5090565b610b5691905b80821115610b52576000816000905550600101610b3a565b5090565b9056fea265627a7a7231582038009922846c1b256ed4a7ad0d69a5f9387c146bd85fad73faa22d674e028e5164736f6c634300050c0032",
  "source": "pragma solidity ^0.5.8;\r\n\r\nimport \"./ColaFactory.sol\";\r\n\r\ncontract ColaMixture is ColaFactory {\r\n        modifier onlyOwnerOf(uint _colaId) {\r\n                require(msg.sender == colaToOwner[_colaId]);\r\n                _;\r\n        }\r\n\r\n        function _triggerCooldown(Cola storage _cola) internal {\r\n                _cola.readyTime = uint32(now + cooldownTime);\r\n        }\r\n\r\n        function _isReady(Cola storage _cola) view internal returns(bool) {\r\n                return (_cola.readyTime <= now);\r\n        }\r\n\r\n        function mixCola(string memory _name, uint _colaId1, uint _colaId2) public {\r\n                require(msg.sender == colaToOwner[_colaId1] && msg.sender == colaToOwner[_colaId2]);\r\n                Cola storage cola1 = colas[_colaId1];\r\n                Cola storage cola2 = colas[_colaId2];\r\n                if (_isReady(cola1) && _isReady(cola2)) {\r\n                    uint newColaCode = (colas[_colaId1].code + colas[_colaId2].code) / 2; \r\n                    _produceCola(_name, newColaCode);\r\n                    _triggerCooldown(cola1);\r\n                    _triggerCooldown(cola2);\r\n                }\r\n        }\r\n}\r\n",
  "sourcePath": "/home/procedure2012/Project/CryptoCola/contracts/ColaMixture.sol",
  "compiler": {
    "name": "solc",
    "version": "0.5.12+commit.7709ece9.Emscripten.clang"
  },
  "schemaVersion": "3.0.19",
  "updatedAt": "2020-03-24T09:55:38.214Z",
  "networkType": "ethereum",
  "devdoc": {
    "methods": {}
  },
  "userdoc": {
    "methods": {}
  }
}