{
  "contractName": "ColaPresentation",
  "abi": [
    {
      "anonymous": false,
      "inputs": [
        {
          "indexed": false,
          "internalType": "uint256",
          "name": "colaId",
          "type": "uint256"
        },
        {
          "indexed": false,
          "internalType": "string",
          "name": "name",
          "type": "string"
        },
        {
          "indexed": false,
          "internalType": "uint256",
          "name": "code",
          "type": "uint256"
        }
      ],
      "name": "NewCola",
      "type": "event"
    },
    {
      "anonymous": false,
      "inputs": [
        {
          "indexed": true,
          "internalType": "address",
          "name": "previousOwner",
          "type": "address"
        },
        {
          "indexed": true,
          "internalType": "address",
          "name": "newOwner",
          "type": "address"
        }
      ],
      "name": "OwnershipTransferred",
      "type": "event"
    },
    {
      "constant": true,
      "inputs": [
        {
          "internalType": "uint256",
          "name": "",
          "type": "uint256"
        }
      ],
      "name": "colaToOwner",
      "outputs": [
        {
          "internalType": "address",
          "name": "",
          "type": "address"
        }
      ],
      "payable": false,
      "stateMutability": "view",
      "type": "function"
    },
    {
      "constant": true,
      "inputs": [
        {
          "internalType": "uint256",
          "name": "",
          "type": "uint256"
        }
      ],
      "name": "colas",
      "outputs": [
        {
          "internalType": "string",
          "name": "name",
          "type": "string"
        },
        {
          "internalType": "uint256",
          "name": "code",
          "type": "uint256"
        },
        {
          "internalType": "uint256",
          "name": "price",
          "type": "uint256"
        },
        {
          "internalType": "uint8",
          "name": "level",
          "type": "uint8"
        },
        {
          "internalType": "uint32",
          "name": "readyTime",
          "type": "uint32"
        }
      ],
      "payable": false,
      "stateMutability": "view",
      "type": "function"
    },
    {
      "constant": true,
      "inputs": [],
      "name": "getCooldownTime",
      "outputs": [
        {
          "internalType": "uint32",
          "name": "",
          "type": "uint32"
        }
      ],
      "payable": false,
      "stateMutability": "view",
      "type": "function"
    },
    {
      "constant": true,
      "inputs": [],
      "name": "isOwner",
      "outputs": [
        {
          "internalType": "bool",
          "name": "",
          "type": "bool"
        }
      ],
      "payable": false,
      "stateMutability": "view",
      "type": "function"
    },
    {
      "constant": false,
      "inputs": [
        {
          "internalType": "string",
          "name": "_name",
          "type": "string"
        },
        {
          "internalType": "uint256",
          "name": "_colaId1",
          "type": "uint256"
        },
        {
          "internalType": "uint256",
          "name": "_colaId2",
          "type": "uint256"
        }
      ],
      "name": "mixCola",
      "outputs": [],
      "payable": false,
      "stateMutability": "nonpayable",
      "type": "function"
    },
    {
      "constant": true,
      "inputs": [],
      "name": "owner",
      "outputs": [
        {
          "internalType": "address",
          "name": "",
          "type": "address"
        }
      ],
      "payable": false,
      "stateMutability": "view",
      "type": "function"
    },
    {
      "constant": false,
      "inputs": [
        {
          "internalType": "string",
          "name": "_name",
          "type": "string"
        }
      ],
      "name": "produceRandomCola",
      "outputs": [],
      "payable": false,
      "stateMutability": "nonpayable",
      "type": "function"
    },
    {
      "constant": false,
      "inputs": [],
      "name": "renounceOwnership",
      "outputs": [],
      "payable": false,
      "stateMutability": "nonpayable",
      "type": "function"
    },
    {
      "constant": false,
      "inputs": [
        {
          "internalType": "uint32",
          "name": "_cooldownTime",
          "type": "uint32"
        }
      ],
      "name": "setCooldownTime",
      "outputs": [],
      "payable": false,
      "stateMutability": "nonpayable",
      "type": "function"
    },
    {
      "constant": false,
      "inputs": [
        {
          "internalType": "address",
          "name": "newOwner",
          "type": "address"
        }
      ],
      "name": "transferOwnership",
      "outputs": [],
      "payable": false,
      "stateMutability": "nonpayable",
      "type": "function"
    },
    {
      "constant": true,
      "inputs": [
        {
          "internalType": "address",
          "name": "_owner",
          "type": "address"
        }
      ],
      "name": "getCountByOwner",
      "outputs": [
        {
          "internalType": "uint256",
          "name": "",
          "type": "uint256"
        }
      ],
      "payable": false,
      "stateMutability": "view",
      "type": "function"
    },
    {
      "constant": true,
      "inputs": [
        {
          "internalType": "address",
          "name": "_owner",
          "type": "address"
        }
      ],
      "name": "getColaByOwner",
      "outputs": [
        {
          "internalType": "uint256[]",
          "name": "",
          "type": "uint256[]"
        }
      ],
      "payable": false,
      "stateMutability": "view",
      "type": "function"
    },
    {
      "constant": true,
      "inputs": [
        {
          "internalType": "uint256",
          "name": "_number",
          "type": "uint256"
        }
      ],
      "name": "getColaMarket",
      "outputs": [
        {
          "internalType": "string",
          "name": "",
          "type": "string"
        },
        {
          "internalType": "uint256",
          "name": "",
          "type": "uint256"
        },
        {
          "internalType": "uint8",
          "name": "",
          "type": "uint8"
        },
        {
          "internalType": "uint32",
          "name": "",
          "type": "uint32"
        },
        {
          "internalType": "uint256",
          "name": "",
          "type": "uint256"
        }
      ],
      "payable": false,
      "stateMutability": "view",
      "type": "function"
    },
    {
      "constant": false,
      "inputs": [
        {
          "internalType": "uint256",
          "name": "_colaId",
          "type": "uint256"
        },
        {
          "internalType": "uint256",
          "name": "_price",
          "type": "uint256"
        }
      ],
      "name": "sellCola",
      "outputs": [],
      "payable": false,
      "stateMutability": "nonpayable",
      "type": "function"
    },
    {
      "constant": false,
      "inputs": [
        {
          "internalType": "uint256",
          "name": "_colaId",
          "type": "uint256"
        }
      ],
      "name": "buyCola",
      "outputs": [],
      "payable": true,
      "stateMutability": "payable",
      "type": "function"
    }
  ],
  "bytecode": "0x60806040526010600155600154600a0a60025562015180600660006101000a81548163ffffffff021916908363ffffffff16021790555061004461010460201b60201c565b6000806101000a81548173ffffffffffffffffffffffffffffffffffffffff021916908373ffffffffffffffffffffffffffffffffffffffff1602179055506000809054906101000a900473ffffffffffffffffffffffffffffffffffffffff1673ffffffffffffffffffffffffffffffffffffffff16600073ffffffffffffffffffffffffffffffffffffffff167f8be0079c531659141344cd1fd0a4f28419497f9722a3daafe3b4186f6b6457e060405160405180910390a361010c565b600033905090565b6117ab8061011b6000396000f3fe6080604052600436106100e85760003560e01c80638f32d59b1161008a578063cd9e938311610059578063cd9e938314610576578063de70ffc21461061c578063edd963ac146106fe578063f2fde38b14610763576100e8565b80638f32d59b146104105780639ab898381461043f578063afd9b9001461046d578063c7616ae314610535576100e8565b8063658e2308116100c6578063658e230814610289578063715018a61461036b5780638da5cb5b146103825780638f2a02b4146103d9576100e8565b806301c3fe67146100ed57806335e2e27a146101685780633eb0822914610244575b600080fd5b3480156100f957600080fd5b506101266004803603602081101561011057600080fd5b81019080803590602001909291905050506107b4565b604051808273ffffffffffffffffffffffffffffffffffffffff1673ffffffffffffffffffffffffffffffffffffffff16815260200191505060405180910390f35b34801561017457600080fd5b506102426004803603606081101561018b57600080fd5b81019080803590602001906401000000008111156101a857600080fd5b8201836020820111156101ba57600080fd5b803590602001918460018302840111640100000000831117156101dc57600080fd5b91908080601f016020809104026020016040519081016040528093929190818152602001838380828437600081840152601f19601f82011690508083019250505050505050919291929080359060200190929190803590602001909291905050506107e7565b005b34801561025057600080fd5b506102876004803603604081101561026757600080fd5b81019080803590602001909291908035906020019092919050505061098b565b005b34801561029557600080fd5b506102c2600480360360208110156102ac57600080fd5b8101908080359060200190929190505050610a1d565b60405180806020018681526020018581526020018460ff1660ff1681526020018363ffffffff1663ffffffff168152602001828103825287818151815260200191508051906020019080838360005b8381101561032c578082015181840152602081019050610311565b50505050905090810190601f1680156103595780820380516001836020036101000a031916815260200191505b50965050505050505060405180910390f35b34801561037757600080fd5b50610380610b15565b005b34801561038e57600080fd5b50610397610c4e565b604051808273ffffffffffffffffffffffffffffffffffffffff1673ffffffffffffffffffffffffffffffffffffffff16815260200191505060405180910390f35b3480156103e557600080fd5b506103ee610c77565b604051808263ffffffff1663ffffffff16815260200191505060405180910390f35b34801561041c57600080fd5b50610425610c91565b604051808215151515815260200191505060405180910390f35b61046b6004803603602081101561045557600080fd5b8101908080359060200190929190505050610cef565b005b34801561047957600080fd5b506105336004803603602081101561049057600080fd5b81019080803590602001906401000000008111156104ad57600080fd5b8201836020820111156104bf57600080fd5b803590602001918460018302840111640100000000831117156104e157600080fd5b91908080601f016020809104026020016040519081016040528093929190818152602001838380828437600081840152601f19601f820116905080830192505050505050509192919290505050610d9d565b005b34801561054157600080fd5b506105746004803603602081101561055857600080fd5b81019080803563ffffffff169060200190929190505050610e04565b005b34801561058257600080fd5b506105c56004803603602081101561059957600080fd5b81019080803573ffffffffffffffffffffffffffffffffffffffff169060200190929190505050610e28565b6040518080602001828103825283818151815260200191508051906020019060200280838360005b838110156106085780820151818401526020810190506105ed565b505050509050019250505060405180910390f35b34801561062857600080fd5b506106556004803603602081101561063f57600080fd5b8101908080359060200190929190505050610f53565b60405180806020018681526020018560ff1660ff1681526020018463ffffffff1663ffffffff168152602001838152602001828103825287818151815260200191508051906020019080838360005b838110156106bf5780820151818401526020810190506106a4565b50505050905090810190601f1680156106ec5780820380516001836020036101000a031916815260200191505b50965050505050505060405180910390f35b34801561070a57600080fd5b5061074d6004803603602081101561072157600080fd5b81019080803573ffffffffffffffffffffffffffffffffffffffff16906020019092919050505061114e565b6040518082815260200191505060405180910390f35b34801561076f57600080fd5b506107b26004803603602081101561078657600080fd5b81019080803573ffffffffffffffffffffffffffffffffffffffff169060200190929190505050611197565b005b60046020528060005260406000206000915054906101000a900473ffffffffffffffffffffffffffffffffffffffff1681565b6004600083815260200190815260200160002060009054906101000a900473ffffffffffffffffffffffffffffffffffffffff1673ffffffffffffffffffffffffffffffffffffffff163373ffffffffffffffffffffffffffffffffffffffff161480156108b357506004600082815260200190815260200160002060009054906101000a900473ffffffffffffffffffffffffffffffffffffffff1673ffffffffffffffffffffffffffffffffffffffff163373ffffffffffffffffffffffffffffffffffffffff16145b6108bc57600080fd5b6000600383815481106108cb57fe5b906000526020600020906004020190506000600383815481106108ea57fe5b906000526020600020906004020190506109038261121d565b801561091457506109138161121d565b5b1561098457600060026003858154811061092a57fe5b9060005260206000209060040201600101546003878154811061094957fe5b906000526020600020906004020160010154018161096357fe5b0490506109708682611244565b61097983611491565b61098282611491565b505b5050505050565b6004600083815260200190815260200160002060009054906101000a900473ffffffffffffffffffffffffffffffffffffffff1673ffffffffffffffffffffffffffffffffffffffff163373ffffffffffffffffffffffffffffffffffffffff16146109f657600080fd5b8060038381548110610a0457fe5b9060005260206000209060040201600201819055505050565b60038181548110610a2a57fe5b9060005260206000209060040201600091509050806000018054600181600116156101000203166002900480601f016020809104026020016040519081016040528092919081815260200182805460018160011615610100020316600290048015610ad65780601f10610aab57610100808354040283529160200191610ad6565b820191906000526020600020905b815481529060010190602001808311610ab957829003601f168201915b5050505050908060010154908060020154908060030160009054906101000a900460ff16908060030160019054906101000a900463ffffffff16905085565b610b1d610c91565b610b8f576040517f08c379a00000000000000000000000000000000000000000000000000000000081526004018080602001828103825260208152602001807f4f776e61626c653a2063616c6c6572206973206e6f7420746865206f776e657281525060200191505060405180910390fd5b600073ffffffffffffffffffffffffffffffffffffffff166000809054906101000a900473ffffffffffffffffffffffffffffffffffffffff1673ffffffffffffffffffffffffffffffffffffffff167f8be0079c531659141344cd1fd0a4f28419497f9722a3daafe3b4186f6b6457e060405160405180910390a360008060006101000a81548173ffffffffffffffffffffffffffffffffffffffff021916908373ffffffffffffffffffffffffffffffffffffffff160217905550565b60008060009054906101000a900473ffffffffffffffffffffffffffffffffffffffff16905090565b6000600660009054906101000a900463ffffffff16905090565b60008060009054906101000a900473ffffffffffffffffffffffffffffffffffffffff1673ffffffffffffffffffffffffffffffffffffffff16610cd36114d1565b73ffffffffffffffffffffffffffffffffffffffff1614905090565b60038181548110610cfc57fe5b906000526020600020906004020160020154341015610d1a57600080fd5b60006004600083815260200190815260200160002060009054906101000a900473ffffffffffffffffffffffffffffffffffffffff1690508073ffffffffffffffffffffffffffffffffffffffff166108fc349081150290604051600060405180830381858888f19350505050158015610d98573d6000803e3d6000fd5b505050565b6002600560003373ffffffffffffffffffffffffffffffffffffffff1673ffffffffffffffffffffffffffffffffffffffff1681526020019081526020016000205410610de957600080fd5b6000610df4826114d9565b9050610e008282611244565b5050565b80600660006101000a81548163ffffffff021916908363ffffffff16021790555050565b606080600560008473ffffffffffffffffffffffffffffffffffffffff1673ffffffffffffffffffffffffffffffffffffffff16815260200190815260200160002054604051908082528060200260200182016040528015610e995781602001602082028038833980820191505090505b509050600080905060008090505b600380549050811015610f48578473ffffffffffffffffffffffffffffffffffffffff166004600083815260200190815260200160002060009054906101000a900473ffffffffffffffffffffffffffffffffffffffff1673ffffffffffffffffffffffffffffffffffffffff161415610f3d5780838381518110610f2857fe5b60200260200101818152505081806001019250505b806001019050610ea7565b508192505050919050565b6060600080600080600080905060008090505b60038054905081101561111257600060038281548110610f8257fe5b906000526020600020906004020160020154111561110757878214156111065760038181548110610faf57fe5b906000526020600020906004020160000160038281548110610fcd57fe5b90600052602060002090600402016001015460038381548110610fec57fe5b906000526020600020906004020160030160009054906101000a900460ff166003848154811061101857fe5b906000526020600020906004020160030160019054906101000a900463ffffffff166003858154811061104757fe5b906000526020600020906004020160020154848054600181600116156101000203166002900480601f0160208091040260200160405190810160405280929190818152602001828054600181600116156101000203166002900480156110ee5780601f106110c3576101008083540402835291602001916110ee565b820191906000526020600020905b8154815290600101906020018083116110d157829003601f168201915b50505050509450965096509650965096505050611145565b5b806001019050610f66565b50600080600080604051806020016040528060008152509392919083935082925081915080905095509550955095509550505b91939590929450565b6000600560008373ffffffffffffffffffffffffffffffffffffffff1673ffffffffffffffffffffffffffffffffffffffff168152602001908152602001600020549050919050565b61119f610c91565b611211576040517f08c379a00000000000000000000000000000000000000000000000000000000081526004018080602001828103825260208152602001807f4f776e61626c653a2063616c6c6572206973206e6f7420746865206f776e657281525060200191505060405180910390fd5b61121a81611567565b50565b6000428260030160019054906101000a900463ffffffff1663ffffffff1611159050919050565b6000600160036040518060a0016040528086815260200185815260200160008152602001600060ff168152602001600660009054906101000a900463ffffffff1663ffffffff16420163ffffffff168152509080600181540180825580915050906001820390600052602060002090600402016000909192909190915060008201518160000190805190602001906112dd9291906116ab565b50602082015181600101556040820151816002015560608201518160030160006101000a81548160ff021916908360ff16021790555060808201518160030160016101000a81548163ffffffff021916908363ffffffff1602179055505050039050336004600083815260200190815260200160002060006101000a81548173ffffffffffffffffffffffffffffffffffffffff021916908373ffffffffffffffffffffffffffffffffffffffff160217905550600560003373ffffffffffffffffffffffffffffffffffffffff1673ffffffffffffffffffffffffffffffffffffffff168152602001908152602001600020600081548092919060010191905055507fa64b6d0dcd584cf22e064bd7e637a7ebc7fe4f635054a8372c1a56b34b2b728b8184846040518084815260200180602001838152602001828103825284818151815260200191508051906020019080838360005b83811015611450578082015181840152602081019050611435565b50505050905090810190601f16801561147d5780820380516001836020036101000a031916815260200191505b5094505050505060405180910390a1505050565b600660009054906101000a900463ffffffff1663ffffffff1642018160030160016101000a81548163ffffffff021916908363ffffffff16021790555050565b600033905090565b600080826040516020018082805190602001908083835b6020831061151357805182526020820191506020810190506020830392506114f0565b6001836020036101000a0380198251168184511680821785525050505050509050019150506040516020818303038152906040528051906020012060001c9050600254818161155e57fe5b06915050919050565b600073ffffffffffffffffffffffffffffffffffffffff168173ffffffffffffffffffffffffffffffffffffffff1614156115ed576040517f08c379a00000000000000000000000000000000000000000000000000000000081526004018080602001828103825260268152602001806117516026913960400191505060405180910390fd5b8073ffffffffffffffffffffffffffffffffffffffff166000809054906101000a900473ffffffffffffffffffffffffffffffffffffffff1673ffffffffffffffffffffffffffffffffffffffff167f8be0079c531659141344cd1fd0a4f28419497f9722a3daafe3b4186f6b6457e060405160405180910390a3806000806101000a81548173ffffffffffffffffffffffffffffffffffffffff021916908373ffffffffffffffffffffffffffffffffffffffff16021790555050565b828054600181600116156101000203166002900490600052602060002090601f016020900481019282601f106116ec57805160ff191683800117855561171a565b8280016001018555821561171a579182015b828111156117195782518255916020019190600101906116fe565b5b509050611727919061172b565b5090565b61174d91905b80821115611749576000816000905550600101611731565b5090565b9056fe4f776e61626c653a206e6577206f776e657220697320746865207a65726f2061646472657373a265627a7a723158209c3e66c773d6a6416fe6a070893bd1ef1949fc65556d084949f105a6a417ff7864736f6c634300050c0032",
  "source": "pragma solidity ^0.5.8;\n\nimport \"./ColaMixture.sol\";\n\ncontract ColaPresentation is ColaMixture {\n        function getCountByOwner(address _owner) public view returns(uint) {\n                return ownerColaCount[_owner];\n        }\n\n        function getColaByOwner(address _owner) public view returns(uint[] memory) {\n\t\tuint[] memory result = new uint[](ownerColaCount[_owner]);\n\t\tuint count = 0;\n                for (uint i = 0; i < colas.length; ++i) \n                        if (colaToOwner[i] == _owner) {\n\t\t\t\tresult[count] = i;\n\t\t\t\tcount++;\n                        }\n\t\treturn result;\n        }\n        \n        function getColaMarket(uint _number) public view returns(string memory, uint, uint8, uint32, uint) {\n\t\tuint count = 0;\n                for (uint i = 0; i < colas.length; ++i) \n                        if (colas[i].price > 0) \n\t\t\t\tif (count == _number)\n                                \treturn (colas[i].name, colas[i].code, colas[i].level, colas[i].readyTime, colas[i].price);\n\t\treturn ('', 0, 0, 0, 0);\n        }\n\n        function sellCola(uint _colaId, uint _price) external {\n                require(msg.sender == colaToOwner[_colaId]);\n                colas[_colaId].price = _price;\n        }\n\n        function buyCola(uint _colaId) external payable {\n                require(msg.value >= colas[_colaId].price);\n                address payable seller = address(uint160(colaToOwner[_colaId]));\n                seller.transfer(msg.value);\n        }\n}\n",
  "sourcePath": "/home/procedure2012/Project/CryptoCola/contracts/ColaPresentation.sol",
  "compiler": {
    "name": "solc",
    "version": "0.5.12+commit.7709ece9.Emscripten.clang"
  },
  "schemaVersion": "3.0.19",
  "updatedAt": "2020-01-10T16:53:02.239Z",
  "networkType": "ethereum",
  "devdoc": {
    "methods": {
      "isOwner()": {
        "details": "Returns true if the caller is the current owner."
      },
      "owner()": {
        "details": "Returns the address of the current owner."
      },
      "renounceOwnership()": {
        "details": "Leaves the contract without owner. It will not be possible to call `onlyOwner` functions anymore. Can only be called by the current owner.     * NOTE: Renouncing ownership will leave the contract without an owner, thereby removing any functionality that is only available to the owner."
      },
      "transferOwnership(address)": {
        "details": "Transfers ownership of the contract to a new account (`newOwner`). Can only be called by the current owner."
      }
    }
  },
  "userdoc": {
    "methods": {}
  }
}