{
  "contractName": "ColaPresentation",
  "abi": [
    {
      "anonymous": false,
      "inputs": [
        {
          "indexed": true,
          "internalType": "address",
          "name": "owner",
          "type": "address"
        },
        {
          "indexed": true,
          "internalType": "address",
          "name": "approved",
          "type": "address"
        },
        {
          "indexed": true,
          "internalType": "uint256",
          "name": "tokenId",
          "type": "uint256"
        }
      ],
      "name": "Approval",
      "type": "event"
    },
    {
      "anonymous": false,
      "inputs": [
        {
          "indexed": true,
          "internalType": "address",
          "name": "owner",
          "type": "address"
        },
        {
          "indexed": true,
          "internalType": "address",
          "name": "operator",
          "type": "address"
        },
        {
          "indexed": false,
          "internalType": "bool",
          "name": "approved",
          "type": "bool"
        }
      ],
      "name": "ApprovalForAll",
      "type": "event"
    },
    {
      "anonymous": false,
      "inputs": [
        {
          "indexed": false,
          "internalType": "uint256",
          "name": "colaId",
          "type": "uint256"
        },
        {
          "indexed": false,
          "internalType": "string",
          "name": "name",
          "type": "string"
        },
        {
          "indexed": false,
          "internalType": "uint256",
          "name": "code",
          "type": "uint256"
        }
      ],
      "name": "NewCola",
      "type": "event"
    },
    {
      "anonymous": false,
      "inputs": [
        {
          "indexed": true,
          "internalType": "address",
          "name": "previousOwner",
          "type": "address"
        },
        {
          "indexed": true,
          "internalType": "address",
          "name": "newOwner",
          "type": "address"
        }
      ],
      "name": "OwnershipTransferred",
      "type": "event"
    },
    {
      "anonymous": false,
      "inputs": [
        {
          "indexed": true,
          "internalType": "address",
          "name": "from",
          "type": "address"
        },
        {
          "indexed": true,
          "internalType": "address",
          "name": "to",
          "type": "address"
        },
        {
          "indexed": true,
          "internalType": "uint256",
          "name": "tokenId",
          "type": "uint256"
        }
      ],
      "name": "Transfer",
      "type": "event"
    },
    {
      "constant": false,
      "inputs": [
        {
          "internalType": "address",
          "name": "_approved",
          "type": "address"
        },
        {
          "internalType": "uint256",
          "name": "_tokenId",
          "type": "uint256"
        }
      ],
      "name": "approve",
      "outputs": [],
      "payable": false,
      "stateMutability": "nonpayable",
      "type": "function"
    },
    {
      "constant": true,
      "inputs": [
        {
          "internalType": "address",
          "name": "_owner",
          "type": "address"
        }
      ],
      "name": "balanceOf",
      "outputs": [
        {
          "internalType": "uint256",
          "name": "_balance",
          "type": "uint256"
        }
      ],
      "payable": false,
      "stateMutability": "view",
      "type": "function"
    },
    {
      "constant": true,
      "inputs": [
        {
          "internalType": "uint256",
          "name": "",
          "type": "uint256"
        }
      ],
      "name": "colaToAuction",
      "outputs": [
        {
          "internalType": "address",
          "name": "seller",
          "type": "address"
        },
        {
          "internalType": "uint256",
          "name": "price",
          "type": "uint256"
        },
        {
          "internalType": "bool",
          "name": "isOn",
          "type": "bool"
        }
      ],
      "payable": false,
      "stateMutability": "view",
      "type": "function"
    },
    {
      "constant": true,
      "inputs": [
        {
          "internalType": "uint256",
          "name": "",
          "type": "uint256"
        }
      ],
      "name": "colaToOwner",
      "outputs": [
        {
          "internalType": "address",
          "name": "",
          "type": "address"
        }
      ],
      "payable": false,
      "stateMutability": "view",
      "type": "function"
    },
    {
      "constant": true,
      "inputs": [
        {
          "internalType": "uint256",
          "name": "",
          "type": "uint256"
        }
      ],
      "name": "colas",
      "outputs": [
        {
          "internalType": "string",
          "name": "name",
          "type": "string"
        },
        {
          "internalType": "uint256",
          "name": "code",
          "type": "uint256"
        },
        {
          "internalType": "uint8",
          "name": "level",
          "type": "uint8"
        },
        {
          "internalType": "uint32",
          "name": "readyTime",
          "type": "uint32"
        }
      ],
      "payable": false,
      "stateMutability": "view",
      "type": "function"
    },
    {
      "constant": true,
      "inputs": [
        {
          "internalType": "uint256",
          "name": "_tokenId",
          "type": "uint256"
        }
      ],
      "name": "getApproved",
      "outputs": [
        {
          "internalType": "address",
          "name": "",
          "type": "address"
        }
      ],
      "payable": false,
      "stateMutability": "view",
      "type": "function"
    },
    {
      "constant": true,
      "inputs": [],
      "name": "getCooldownTime",
      "outputs": [
        {
          "internalType": "uint32",
          "name": "",
          "type": "uint32"
        }
      ],
      "payable": false,
      "stateMutability": "view",
      "type": "function"
    },
    {
      "constant": true,
      "inputs": [
        {
          "internalType": "address",
          "name": "owner",
          "type": "address"
        },
        {
          "internalType": "address",
          "name": "operator",
          "type": "address"
        }
      ],
      "name": "isApprovedForAll",
      "outputs": [
        {
          "internalType": "bool",
          "name": "",
          "type": "bool"
        }
      ],
      "payable": false,
      "stateMutability": "view",
      "type": "function"
    },
    {
      "constant": true,
      "inputs": [],
      "name": "isOwner",
      "outputs": [
        {
          "internalType": "bool",
          "name": "",
          "type": "bool"
        }
      ],
      "payable": false,
      "stateMutability": "view",
      "type": "function"
    },
    {
      "constant": false,
      "inputs": [
        {
          "internalType": "string",
          "name": "_name",
          "type": "string"
        },
        {
          "internalType": "uint256",
          "name": "_colaId1",
          "type": "uint256"
        },
        {
          "internalType": "uint256",
          "name": "_colaId2",
          "type": "uint256"
        }
      ],
      "name": "mixCola",
      "outputs": [],
      "payable": false,
      "stateMutability": "nonpayable",
      "type": "function"
    },
    {
      "constant": true,
      "inputs": [],
      "name": "owner",
      "outputs": [
        {
          "internalType": "address",
          "name": "",
          "type": "address"
        }
      ],
      "payable": false,
      "stateMutability": "view",
      "type": "function"
    },
    {
      "constant": true,
      "inputs": [
        {
          "internalType": "address",
          "name": "",
          "type": "address"
        }
      ],
      "name": "ownerColaCount",
      "outputs": [
        {
          "internalType": "uint256",
          "name": "",
          "type": "uint256"
        }
      ],
      "payable": false,
      "stateMutability": "view",
      "type": "function"
    },
    {
      "constant": true,
      "inputs": [
        {
          "internalType": "uint256",
          "name": "_tokenId",
          "type": "uint256"
        }
      ],
      "name": "ownerOf",
      "outputs": [
        {
          "internalType": "address",
          "name": "_owner",
          "type": "address"
        }
      ],
      "payable": false,
      "stateMutability": "view",
      "type": "function"
    },
    {
      "constant": false,
      "inputs": [
        {
          "internalType": "string",
          "name": "_name",
          "type": "string"
        }
      ],
      "name": "produceRandomCola",
      "outputs": [],
      "payable": false,
      "stateMutability": "nonpayable",
      "type": "function"
    },
    {
      "constant": false,
      "inputs": [],
      "name": "renounceOwnership",
      "outputs": [],
      "payable": false,
      "stateMutability": "nonpayable",
      "type": "function"
    },
    {
      "constant": false,
      "inputs": [
        {
          "internalType": "address",
          "name": "from",
          "type": "address"
        },
        {
          "internalType": "address",
          "name": "to",
          "type": "address"
        },
        {
          "internalType": "uint256",
          "name": "tokenId",
          "type": "uint256"
        }
      ],
      "name": "safeTransferFrom",
      "outputs": [],
      "payable": false,
      "stateMutability": "nonpayable",
      "type": "function"
    },
    {
      "constant": false,
      "inputs": [
        {
          "internalType": "address",
          "name": "from",
          "type": "address"
        },
        {
          "internalType": "address",
          "name": "to",
          "type": "address"
        },
        {
          "internalType": "uint256",
          "name": "tokenId",
          "type": "uint256"
        },
        {
          "internalType": "bytes",
          "name": "_data",
          "type": "bytes"
        }
      ],
      "name": "safeTransferFrom",
      "outputs": [],
      "payable": false,
      "stateMutability": "nonpayable",
      "type": "function"
    },
    {
      "constant": false,
      "inputs": [
        {
          "internalType": "address",
          "name": "to",
          "type": "address"
        },
        {
          "internalType": "bool",
          "name": "approved",
          "type": "bool"
        }
      ],
      "name": "setApprovalForAll",
      "outputs": [],
      "payable": false,
      "stateMutability": "nonpayable",
      "type": "function"
    },
    {
      "constant": false,
      "inputs": [
        {
          "internalType": "uint32",
          "name": "_cooldownTime",
          "type": "uint32"
        }
      ],
      "name": "setCooldownTime",
      "outputs": [],
      "payable": false,
      "stateMutability": "nonpayable",
      "type": "function"
    },
    {
      "constant": true,
      "inputs": [
        {
          "internalType": "bytes4",
          "name": "interfaceId",
          "type": "bytes4"
        }
      ],
      "name": "supportsInterface",
      "outputs": [
        {
          "internalType": "bool",
          "name": "",
          "type": "bool"
        }
      ],
      "payable": false,
      "stateMutability": "view",
      "type": "function"
    },
    {
      "constant": false,
      "inputs": [
        {
          "internalType": "uint256",
          "name": "_tokenId",
          "type": "uint256"
        }
      ],
      "name": "takeOwnership",
      "outputs": [],
      "payable": false,
      "stateMutability": "nonpayable",
      "type": "function"
    },
    {
      "constant": false,
      "inputs": [
        {
          "internalType": "address",
          "name": "_from",
          "type": "address"
        },
        {
          "internalType": "address",
          "name": "_to",
          "type": "address"
        },
        {
          "internalType": "uint256",
          "name": "_tokenId",
          "type": "uint256"
        }
      ],
      "name": "transferFrom",
      "outputs": [],
      "payable": false,
      "stateMutability": "nonpayable",
      "type": "function"
    },
    {
      "constant": false,
      "inputs": [
        {
          "internalType": "address",
          "name": "newOwner",
          "type": "address"
        }
      ],
      "name": "transferOwnership",
      "outputs": [],
      "payable": false,
      "stateMutability": "nonpayable",
      "type": "function"
    },
    {
      "constant": true,
      "inputs": [
        {
          "internalType": "address",
          "name": "_owner",
          "type": "address"
        }
      ],
      "name": "getCountByOwner",
      "outputs": [
        {
          "internalType": "uint256",
          "name": "",
          "type": "uint256"
        }
      ],
      "payable": false,
      "stateMutability": "view",
      "type": "function"
    },
    {
      "constant": true,
      "inputs": [
        {
          "internalType": "address",
          "name": "_owner",
          "type": "address"
        }
      ],
      "name": "getColaByOwner",
      "outputs": [
        {
          "internalType": "uint256[]",
          "name": "",
          "type": "uint256[]"
        }
      ],
      "payable": false,
      "stateMutability": "view",
      "type": "function"
    },
    {
      "constant": true,
      "inputs": [],
      "name": "getColaMarket",
      "outputs": [
        {
          "internalType": "uint256[]",
          "name": "",
          "type": "uint256[]"
        }
      ],
      "payable": false,
      "stateMutability": "view",
      "type": "function"
    },
    {
      "constant": false,
      "inputs": [
        {
          "internalType": "uint256",
          "name": "_colaId",
          "type": "uint256"
        },
        {
          "internalType": "uint256",
          "name": "_price",
          "type": "uint256"
        }
      ],
      "name": "sellCola",
      "outputs": [],
      "payable": false,
      "stateMutability": "nonpayable",
      "type": "function"
    },
    {
      "constant": false,
      "inputs": [
        {
          "internalType": "uint256",
          "name": "_colaId",
          "type": "uint256"
        }
      ],
      "name": "cancelSellCola",
      "outputs": [],
      "payable": false,
      "stateMutability": "nonpayable",
      "type": "function"
    },
    {
      "constant": false,
      "inputs": [
        {
          "internalType": "uint256",
          "name": "_colaId",
          "type": "uint256"
        }
      ],
      "name": "buyCola",
      "outputs": [],
      "payable": true,
      "stateMutability": "payable",
      "type": "function"
    }
  ],
  "bytecode": "0x60806040526010600155600154600a0a600255603c600660006101000a81548163ffffffff021916908363ffffffff160217905550620000446200013560201b60201c565b6000806101000a81548173ffffffffffffffffffffffffffffffffffffffff021916908373ffffffffffffffffffffffffffffffffffffffff1602179055506000809054906101000a900473ffffffffffffffffffffffffffffffffffffffff1673ffffffffffffffffffffffffffffffffffffffff16600073ffffffffffffffffffffffffffffffffffffffff167f8be0079c531659141344cd1fd0a4f28419497f9722a3daafe3b4186f6b6457e060405160405180910390a3620001176301ffc9a760e01b6200013d60201b60201c565b6200012f6380ac58cd60e01b6200013d60201b60201c565b62000247565b600033905090565b63ffffffff60e01b817bffffffffffffffffffffffffffffffffffffffffffffffffffffffff19161415620001da576040517f08c379a000000000000000000000000000000000000000000000000000000000815260040180806020018281038252601c8152602001807f4552433136353a20696e76616c696420696e746572666163652069640000000081525060200191505060405180910390fd5b600160076000837bffffffffffffffffffffffffffffffffffffffffffffffffffffffff19167bffffffffffffffffffffffffffffffffffffffffffffffffffffffff1916815260200190815260200160002060006101000a81548160ff02191690831515021790555050565b61352880620002576000396000f3fe6080604052600436106101c25760003560e01c80638da5cb5b116100f7578063b2e6ceeb11610095578063e985e9c511610064578063e985e9c514610ce4578063edd963ac14610d6d578063f2fde38b14610dd2578063f94a866b14610e23576101c2565b8063b2e6ceeb14610ab0578063b88d4fde14610aeb578063c7616ae314610bfd578063cd9e938314610c3e576101c2565b80639ab89838116100d15780639ab89838146108f85780639dcc990414610926578063a22cb4651461098b578063afd9b900146109e8576101c2565b80638da5cb5b1461083b5780638f2a02b4146108925780638f32d59b146108c9576101c2565b806342842e0e11610164578063658e23081161013e578063658e2308146106a95780636aba56e91461078457806370a08231146107bf578063715018a614610824576101c2565b806342842e0e1461052657806356077b09146105a15780636352211e1461062e576101c2565b8063095ea7b3116101a0578063095ea7b31461032f57806323b872dd1461038a57806335e2e27a146104055780633eb08229146104e1576101c2565b806301c3fe67146101c757806301ffc9a714610242578063081812fc146102b4575b600080fd5b3480156101d357600080fd5b50610200600480360360208110156101ea57600080fd5b8101908080359060200190929190505050610e8f565b604051808273ffffffffffffffffffffffffffffffffffffffff1673ffffffffffffffffffffffffffffffffffffffff16815260200191505060405180910390f35b34801561024e57600080fd5b5061029a6004803603602081101561026557600080fd5b8101908080357bffffffffffffffffffffffffffffffffffffffffffffffffffffffff19169060200190929190505050610ec2565b604051808215151515815260200191505060405180910390f35b3480156102c057600080fd5b506102ed600480360360208110156102d757600080fd5b8101908080359060200190929190505050610f2a565b604051808273ffffffffffffffffffffffffffffffffffffffff1673ffffffffffffffffffffffffffffffffffffffff16815260200191505060405180910390f35b34801561033b57600080fd5b506103886004803603604081101561035257600080fd5b81019080803573ffffffffffffffffffffffffffffffffffffffff16906020019092919080359060200190929190505050610f67565b005b34801561039657600080fd5b50610403600480360360608110156103ad57600080fd5b81019080803573ffffffffffffffffffffffffffffffffffffffff169060200190929190803573ffffffffffffffffffffffffffffffffffffffff16906020019092919080359060200190929190505050611083565b005b34801561041157600080fd5b506104df6004803603606081101561042857600080fd5b810190808035906020019064010000000081111561044557600080fd5b82018360208201111561045757600080fd5b8035906020019184600183028401116401000000008311171561047957600080fd5b91908080601f016020809104026020016040519081016040528093929190818152602001838380828437600081840152601f19601f8201169050808301925050505050505091929192908035906020019092919080359060200190929190505050611302565b005b3480156104ed57600080fd5b506105246004803603604081101561050457600080fd5b8101908080359060200190929190803590602001909291905050506114a6565b005b34801561053257600080fd5b5061059f6004803603606081101561054957600080fd5b81019080803573ffffffffffffffffffffffffffffffffffffffff169060200190929190803573ffffffffffffffffffffffffffffffffffffffff169060200190929190803590602001909291905050506115e5565b005b3480156105ad57600080fd5b506105da600480360360208110156105c457600080fd5b8101908080359060200190929190505050611605565b604051808473ffffffffffffffffffffffffffffffffffffffff1673ffffffffffffffffffffffffffffffffffffffff16815260200183815260200182151515158152602001935050505060405180910390f35b34801561063a57600080fd5b506106676004803603602081101561065157600080fd5b810190808035906020019092919050505061165c565b604051808273ffffffffffffffffffffffffffffffffffffffff1673ffffffffffffffffffffffffffffffffffffffff16815260200191505060405180910390f35b3480156106b557600080fd5b506106e2600480360360208110156106cc57600080fd5b8101908080359060200190929190505050611699565b60405180806020018581526020018460ff1660ff1681526020018363ffffffff1663ffffffff168152602001828103825286818151815260200191508051906020019080838360005b8381101561074657808201518184015260208101905061072b565b50505050905090810190601f1680156107735780820380516001836020036101000a031916815260200191505b509550505050505060405180910390f35b34801561079057600080fd5b506107bd600480360360208110156107a757600080fd5b810190808035906020019092919050505061178b565b005b3480156107cb57600080fd5b5061080e600480360360208110156107e257600080fd5b81019080803573ffffffffffffffffffffffffffffffffffffffff169060200190929190505050611834565b6040518082815260200191505060405180910390f35b34801561083057600080fd5b5061083961187d565b005b34801561084757600080fd5b506108506119b6565b604051808273ffffffffffffffffffffffffffffffffffffffff1673ffffffffffffffffffffffffffffffffffffffff16815260200191505060405180910390f35b34801561089e57600080fd5b506108a76119df565b604051808263ffffffff1663ffffffff16815260200191505060405180910390f35b3480156108d557600080fd5b506108de6119f9565b604051808215151515815260200191505060405180910390f35b6109246004803603602081101561090e57600080fd5b8101908080359060200190929190505050611a57565b005b34801561093257600080fd5b506109756004803603602081101561094957600080fd5b81019080803573ffffffffffffffffffffffffffffffffffffffff169060200190929190505050611c37565b6040518082815260200191505060405180910390f35b34801561099757600080fd5b506109e6600480360360408110156109ae57600080fd5b81019080803573ffffffffffffffffffffffffffffffffffffffff169060200190929190803515159060200190929190505050611c4f565b005b3480156109f457600080fd5b50610aae60048036036020811015610a0b57600080fd5b8101908080359060200190640100000000811115610a2857600080fd5b820183602082011115610a3a57600080fd5b80359060200191846001830284011164010000000083111715610a5c57600080fd5b91908080601f016020809104026020016040519081016040528093929190818152602001838380828437600081840152601f19601f820116905080830192505050505050509192919290505050611e07565b005b348015610abc57600080fd5b50610ae960048036036020811015610ad357600080fd5b8101908080359060200190929190505050611e6e565b005b348015610af757600080fd5b50610bfb60048036036080811015610b0e57600080fd5b81019080803573ffffffffffffffffffffffffffffffffffffffff169060200190929190803573ffffffffffffffffffffffffffffffffffffffff1690602001909291908035906020019092919080359060200190640100000000811115610b7557600080fd5b820183602082011115610b8757600080fd5b80359060200191846001830284011164010000000083111715610ba957600080fd5b91908080601f016020809104026020016040519081016040528093929190818152602001838380828437600081840152601f19601f820116905080830192505050505050509192919290505050611eef565b005b348015610c0957600080fd5b50610c3c60048036036020811015610c2057600080fd5b81019080803563ffffffff169060200190929190505050611f67565b005b348015610c4a57600080fd5b50610c8d60048036036020811015610c6157600080fd5b81019080803573ffffffffffffffffffffffffffffffffffffffff169060200190929190505050611f8b565b6040518080602001828103825283818151815260200191508051906020019060200280838360005b83811015610cd0578082015181840152602081019050610cb5565b505050509050019250505060405180910390f35b348015610cf057600080fd5b50610d5360048036036040811015610d0757600080fd5b81019080803573ffffffffffffffffffffffffffffffffffffffff169060200190929190803573ffffffffffffffffffffffffffffffffffffffff169060200190929190505050612229565b604051808215151515815260200191505060405180910390f35b348015610d7957600080fd5b50610dbc60048036036020811015610d9057600080fd5b81019080803573ffffffffffffffffffffffffffffffffffffffff1690602001909291905050506122bd565b6040518082815260200191505060405180910390f35b348015610dde57600080fd5b50610e2160048036036020811015610df557600080fd5b81019080803573ffffffffffffffffffffffffffffffffffffffff1690602001909291905050506123eb565b005b348015610e2f57600080fd5b50610e38612471565b6040518080602001828103825283818151815260200191508051906020019060200280838360005b83811015610e7b578082015181840152602081019050610e60565b505050509050019250505060405180910390f35b60046020528060005260406000206000915054906101000a900473ffffffffffffffffffffffffffffffffffffffff1681565b600060076000837bffffffffffffffffffffffffffffffffffffffffffffffffffffffff19167bffffffffffffffffffffffffffffffffffffffffffffffffffffffff1916815260200190815260200160002060009054906101000a900460ff169050919050565b6000600c600083815260200190815260200160002060009054906101000a900473ffffffffffffffffffffffffffffffffffffffff169050919050565b6004600082815260200190815260200160002060009054906101000a900473ffffffffffffffffffffffffffffffffffffffff1673ffffffffffffffffffffffffffffffffffffffff163373ffffffffffffffffffffffffffffffffffffffff1614610fd257600080fd5b81600c600083815260200190815260200160002060006101000a81548173ffffffffffffffffffffffffffffffffffffffff021916908373ffffffffffffffffffffffffffffffffffffffff160217905550808273ffffffffffffffffffffffffffffffffffffffff163373ffffffffffffffffffffffffffffffffffffffff167f8c5be1e5ebec7d5bd14f71427d1e84f3dd0314c0f7b2291e5b200ac8c7c3b92560405160405180910390a45050565b3073ffffffffffffffffffffffffffffffffffffffff168373ffffffffffffffffffffffffffffffffffffffff16148061111b57506004600082815260200190815260200160002060009054906101000a900473ffffffffffffffffffffffffffffffffffffffff1673ffffffffffffffffffffffffffffffffffffffff163373ffffffffffffffffffffffffffffffffffffffff16145b61112457600080fd5b6111776001600560008573ffffffffffffffffffffffffffffffffffffffff1673ffffffffffffffffffffffffffffffffffffffff1681526020019081526020016000205461256190919063ffffffff16565b600560008473ffffffffffffffffffffffffffffffffffffffff1673ffffffffffffffffffffffffffffffffffffffff1681526020019081526020016000208190555061120d6001600560008673ffffffffffffffffffffffffffffffffffffffff1673ffffffffffffffffffffffffffffffffffffffff168152602001908152602001600020546125e990919063ffffffff16565b600560008573ffffffffffffffffffffffffffffffffffffffff1673ffffffffffffffffffffffffffffffffffffffff16815260200190815260200160002081905550816004600083815260200190815260200160002060006101000a81548173ffffffffffffffffffffffffffffffffffffffff021916908373ffffffffffffffffffffffffffffffffffffffff160217905550808273ffffffffffffffffffffffffffffffffffffffff168473ffffffffffffffffffffffffffffffffffffffff167fddf252ad1be2c89b69c2b068fc378daa952ba7f163c4a11628f55a4df523b3ef60405160405180910390a4505050565b6004600083815260200190815260200160002060009054906101000a900473ffffffffffffffffffffffffffffffffffffffff1673ffffffffffffffffffffffffffffffffffffffff163373ffffffffffffffffffffffffffffffffffffffff161480156113ce57506004600082815260200190815260200160002060009054906101000a900473ffffffffffffffffffffffffffffffffffffffff1673ffffffffffffffffffffffffffffffffffffffff163373ffffffffffffffffffffffffffffffffffffffff16145b6113d757600080fd5b6000600383815481106113e657fe5b9060005260206000209060030201905060006003838154811061140557fe5b9060005260206000209060030201905061141e82612633565b801561142f575061142e81612633565b5b1561149f57600060026003858154811061144557fe5b9060005260206000209060030201600101546003878154811061146457fe5b906000526020600020906003020160010154018161147e57fe5b04905061148b868261265a565b61149483612896565b61149d82612896565b505b5050505050565b6004600083815260200190815260200160002060009054906101000a900473ffffffffffffffffffffffffffffffffffffffff1673ffffffffffffffffffffffffffffffffffffffff163373ffffffffffffffffffffffffffffffffffffffff161461151157600080fd5b60405180606001604052803373ffffffffffffffffffffffffffffffffffffffff168152602001670de0b6b3a76400008302815260200160011515815250600d600084815260200190815260200160002060008201518160000160006101000a81548173ffffffffffffffffffffffffffffffffffffffff021916908373ffffffffffffffffffffffffffffffffffffffff1602179055506020820151816001015560408201518160020160006101000a81548160ff0219169083151502179055509050506115e1333084611083565b5050565b61160083838360405180602001604052806000815250611eef565b505050565b600d6020528060005260406000206000915090508060000160009054906101000a900473ffffffffffffffffffffffffffffffffffffffff16908060010154908060020160009054906101000a900460ff16905083565b60006004600083815260200190815260200160002060009054906101000a900473ffffffffffffffffffffffffffffffffffffffff169050919050565b600381815481106116a657fe5b9060005260206000209060030201600091509050806000018054600181600116156101000203166002900480601f0160208091040260200160405190810160405280929190818152602001828054600181600116156101000203166002900480156117525780601f1061172757610100808354040283529160200191611752565b820191906000526020600020905b81548152906001019060200180831161173557829003601f168201915b5050505050908060010154908060020160009054906101000a900460ff16908060020160019054906101000a900463ffffffff16905084565b6117a6600d60008381526020019081526020016000206128d6565b6117af57600080fd5b600d600082815260200190815260200160002060000160009054906101000a900473ffffffffffffffffffffffffffffffffffffffff1673ffffffffffffffffffffffffffffffffffffffff163373ffffffffffffffffffffffffffffffffffffffff161461181d57600080fd5b611828303383611083565b611831816128f1565b50565b6000600560008373ffffffffffffffffffffffffffffffffffffffff1673ffffffffffffffffffffffffffffffffffffffff168152602001908152602001600020549050919050565b6118856119f9565b6118f7576040517f08c379a00000000000000000000000000000000000000000000000000000000081526004018080602001828103825260208152602001807f4f776e61626c653a2063616c6c6572206973206e6f7420746865206f776e657281525060200191505060405180910390fd5b600073ffffffffffffffffffffffffffffffffffffffff166000809054906101000a900473ffffffffffffffffffffffffffffffffffffffff1673ffffffffffffffffffffffffffffffffffffffff167f8be0079c531659141344cd1fd0a4f28419497f9722a3daafe3b4186f6b6457e060405160405180910390a360008060006101000a81548173ffffffffffffffffffffffffffffffffffffffff021916908373ffffffffffffffffffffffffffffffffffffffff160217905550565b60008060009054906101000a900473ffffffffffffffffffffffffffffffffffffffff16905090565b6000600660009054906101000a900463ffffffff16905090565b60008060009054906101000a900473ffffffffffffffffffffffffffffffffffffffff1673ffffffffffffffffffffffffffffffffffffffff16611a3b61294d565b73ffffffffffffffffffffffffffffffffffffffff1614905090565b611a72600d60008381526020019081526020016000206128d6565b611ae4576040517f08c379a000000000000000000000000000000000000000000000000000000000815260040180806020018281038252600b8152602001807f6e6f7420696e2073616c6500000000000000000000000000000000000000000081525060200191505060405180910390fd5b3373ffffffffffffffffffffffffffffffffffffffff1631600d6000838152602001908152602001600020600101541115611b87576040517f08c379a000000000000000000000000000000000000000000000000000000000815260040180806020018281038252601b8152602001807f796f7520646f6e2774206861766520656e6f756768206d6f6e6579000000000081525060200191505060405180910390fd5b6000600d600083815260200190815260200160002060000160009054906101000a900473ffffffffffffffffffffffffffffffffffffffff1690508073ffffffffffffffffffffffffffffffffffffffff166108fc600d6000858152602001908152602001600020600101549081150290604051600060405180830381858888f19350505050158015611c1e573d6000803e3d6000fd5b50611c2a303384611083565b611c33826128f1565b5050565b60056020528060005260406000206000915090505481565b611c5761294d565b73ffffffffffffffffffffffffffffffffffffffff168273ffffffffffffffffffffffffffffffffffffffff161415611cf8576040517f08c379a00000000000000000000000000000000000000000000000000000000081526004018080602001828103825260198152602001807f4552433732313a20617070726f766520746f2063616c6c65720000000000000081525060200191505060405180910390fd5b80600b6000611d0561294d565b73ffffffffffffffffffffffffffffffffffffffff1673ffffffffffffffffffffffffffffffffffffffff16815260200190815260200160002060008473ffffffffffffffffffffffffffffffffffffffff1673ffffffffffffffffffffffffffffffffffffffff16815260200190815260200160002060006101000a81548160ff0219169083151502179055508173ffffffffffffffffffffffffffffffffffffffff16611db261294d565b73ffffffffffffffffffffffffffffffffffffffff167f17307eab39ab6107e8899845ad3d59bd9653f200f220920489ca2b5937696c3183604051808215151515815260200191505060405180910390a35050565b6002600560003373ffffffffffffffffffffffffffffffffffffffff1673ffffffffffffffffffffffffffffffffffffffff1681526020019081526020016000205410611e5357600080fd5b6000611e5e82612955565b9050611e6a828261265a565b5050565b600c600082815260200190815260200160002060009054906101000a900473ffffffffffffffffffffffffffffffffffffffff1673ffffffffffffffffffffffffffffffffffffffff163373ffffffffffffffffffffffffffffffffffffffff1614611ed957600080fd5b611eec611ee58261165c565b3383611083565b50565b611f00611efa61294d565b836129e3565b611f55576040517f08c379a00000000000000000000000000000000000000000000000000000000081526004018080602001828103825260318152602001806134c36031913960400191505060405180910390fd5b611f6184848484612ad7565b50505050565b80600660006101000a81548163ffffffff021916908363ffffffff16021790555050565b6060600080905060008090505b6003805490508110156120af578373ffffffffffffffffffffffffffffffffffffffff166004600083815260200190815260200160002060009054906101000a900473ffffffffffffffffffffffffffffffffffffffff1673ffffffffffffffffffffffffffffffffffffffff1614806120965750612028600d60008381526020019081526020016000206128d6565b801561209557508373ffffffffffffffffffffffffffffffffffffffff16600d600083815260200190815260200160002060000160009054906101000a900473ffffffffffffffffffffffffffffffffffffffff1673ffffffffffffffffffffffffffffffffffffffff16145b5b156120a45781806001019250505b806001019050611f98565b506060816040519080825280602002602001820160405280156120e15781602001602082028038833980820191505090505b5090506000915060008090505b60038054905081101561221e578473ffffffffffffffffffffffffffffffffffffffff166004600083815260200190815260200160002060009054906101000a900473ffffffffffffffffffffffffffffffffffffffff1673ffffffffffffffffffffffffffffffffffffffff1614806121ec575061217e600d60008381526020019081526020016000206128d6565b80156121eb57508473ffffffffffffffffffffffffffffffffffffffff16600d600083815260200190815260200160002060000160009054906101000a900473ffffffffffffffffffffffffffffffffffffffff1673ffffffffffffffffffffffffffffffffffffffff16145b5b1561221357808284815181106121fe57fe5b60200260200101818152505082806001019350505b8060010190506120ee565b508092505050919050565b6000600b60008473ffffffffffffffffffffffffffffffffffffffff1673ffffffffffffffffffffffffffffffffffffffff16815260200190815260200160002060008373ffffffffffffffffffffffffffffffffffffffff1673ffffffffffffffffffffffffffffffffffffffff16815260200190815260200160002060009054906101000a900460ff16905092915050565b6000806000905060008090505b6003805490508110156123e1578373ffffffffffffffffffffffffffffffffffffffff166004600083815260200190815260200160002060009054906101000a900473ffffffffffffffffffffffffffffffffffffffff1673ffffffffffffffffffffffffffffffffffffffff1614806123c8575061235a600d60008381526020019081526020016000206128d6565b80156123c757508373ffffffffffffffffffffffffffffffffffffffff16600d600083815260200190815260200160002060000160009054906101000a900473ffffffffffffffffffffffffffffffffffffffff1673ffffffffffffffffffffffffffffffffffffffff16145b5b156123d65781806001019250505b8060010190506122ca565b5080915050919050565b6123f36119f9565b612465576040517f08c379a00000000000000000000000000000000000000000000000000000000081526004018080602001828103825260208152602001807f4f776e61626c653a2063616c6c6572206973206e6f7420746865206f776e657281525060200191505060405180910390fd5b61246e81612b49565b50565b6060600080905060008090505b6003805490508110156124bf576124a6600d60008381526020019081526020016000206128d6565b156124b45781806001019250505b80600101905061247e565b506060816040519080825280602002602001820160405280156124f15781602001602082028038833980820191505090505b5090506000915060008090505b60038054905081101561255857612526600d60008381526020019081526020016000206128d6565b1561254d578082848151811061253857fe5b60200260200101818152505082806001019350505b8060010190506124fe565b50809250505090565b6000808284019050838110156125df576040517f08c379a000000000000000000000000000000000000000000000000000000000815260040180806020018281038252601b8152602001807f536166654d6174683a206164646974696f6e206f766572666c6f77000000000081525060200191505060405180910390fd5b8091505092915050565b600061262b83836040518060400160405280601e81526020017f536166654d6174683a207375627472616374696f6e206f766572666c6f770000815250612c8d565b905092915050565b6000428260020160019054906101000a900463ffffffff1663ffffffff1611159050919050565b6000600160036040518060800160405280868152602001858152602001600060ff168152602001600660009054906101000a900463ffffffff1663ffffffff16420163ffffffff168152509080600181540180825580915050906001820390600052602060002090600302016000909192909190915060008201518160000190805190602001906126ec92919061334c565b506020820151816001015560408201518160020160006101000a81548160ff021916908360ff16021790555060608201518160020160016101000a81548163ffffffff021916908363ffffffff1602179055505050039050336004600083815260200190815260200160002060006101000a81548173ffffffffffffffffffffffffffffffffffffffff021916908373ffffffffffffffffffffffffffffffffffffffff160217905550600560003373ffffffffffffffffffffffffffffffffffffffff1673ffffffffffffffffffffffffffffffffffffffff168152602001908152602001600020600081548092919060010191905055507fa64b6d0dcd584cf22e064bd7e637a7ebc7fe4f635054a8372c1a56b34b2b728b8184846040518084815260200180602001838152602001828103825284818151815260200191508051906020019080838360005b8381101561285557808201518184015260208101905061283a565b50505050905090810190601f1680156128825780820380516001836020036101000a031916815260200191505b5094505050505060405180910390a1505050565b600660009054906101000a900463ffffffff1663ffffffff1642018160020160016101000a81548163ffffffff021916908363ffffffff16021790555050565b60008160020160009054906101000a900460ff169050919050565b600d6000828152602001908152602001600020600080820160006101000a81549073ffffffffffffffffffffffffffffffffffffffff021916905560018201600090556002820160006101000a81549060ff0219169055505050565b600033905090565b600080826040516020018082805190602001908083835b6020831061298f578051825260208201915060208101905060208303925061296c565b6001836020036101000a0380198251168184511680821785525050505050509050019150506040516020818303038152906040528051906020012060001c905060025481816129da57fe5b06915050919050565b60006129ee82612d4d565b612a43576040517f08c379a000000000000000000000000000000000000000000000000000000000815260040180806020018281038252602c81526020018061346e602c913960400191505060405180910390fd5b6000612a4e8361165c565b90508073ffffffffffffffffffffffffffffffffffffffff168473ffffffffffffffffffffffffffffffffffffffff161480612abd57508373ffffffffffffffffffffffffffffffffffffffff16612aa584610f2a565b73ffffffffffffffffffffffffffffffffffffffff16145b80612ace5750612acd8185612229565b5b91505092915050565b612ae2848484612dbf565b612aee8484848461301a565b612b43576040517f08c379a00000000000000000000000000000000000000000000000000000000081526004018080602001828103825260328152602001806133f26032913960400191505060405180910390fd5b50505050565b600073ffffffffffffffffffffffffffffffffffffffff168173ffffffffffffffffffffffffffffffffffffffff161415612bcf576040517f08c379a00000000000000000000000000000000000000000000000000000000081526004018080602001828103825260268152602001806134246026913960400191505060405180910390fd5b8073ffffffffffffffffffffffffffffffffffffffff166000809054906101000a900473ffffffffffffffffffffffffffffffffffffffff1673ffffffffffffffffffffffffffffffffffffffff167f8be0079c531659141344cd1fd0a4f28419497f9722a3daafe3b4186f6b6457e060405160405180910390a3806000806101000a81548173ffffffffffffffffffffffffffffffffffffffff021916908373ffffffffffffffffffffffffffffffffffffffff16021790555050565b6000838311158290612d3a576040517f08c379a00000000000000000000000000000000000000000000000000000000081526004018080602001828103825283818151815260200191508051906020019080838360005b83811015612cff578082015181840152602081019050612ce4565b50505050905090810190601f168015612d2c5780820380516001836020036101000a031916815260200191505b509250505060405180910390fd5b5060008385039050809150509392505050565b6000806008600084815260200190815260200160002060009054906101000a900473ffffffffffffffffffffffffffffffffffffffff169050600073ffffffffffffffffffffffffffffffffffffffff168173ffffffffffffffffffffffffffffffffffffffff161415915050919050565b8273ffffffffffffffffffffffffffffffffffffffff16612ddf8261165c565b73ffffffffffffffffffffffffffffffffffffffff1614612e4b576040517f08c379a000000000000000000000000000000000000000000000000000000000815260040180806020018281038252602981526020018061349a6029913960400191505060405180910390fd5b600073ffffffffffffffffffffffffffffffffffffffff168273ffffffffffffffffffffffffffffffffffffffff161415612ed1576040517f08c379a000000000000000000000000000000000000000000000000000000000815260040180806020018281038252602481526020018061344a6024913960400191505060405180910390fd5b612eda8161320a565b612f21600a60008573ffffffffffffffffffffffffffffffffffffffff1673ffffffffffffffffffffffffffffffffffffffff1681526020019081526020016000206132c8565b612f68600a60008473ffffffffffffffffffffffffffffffffffffffff1673ffffffffffffffffffffffffffffffffffffffff1681526020019081526020016000206132eb565b816008600083815260200190815260200160002060006101000a81548173ffffffffffffffffffffffffffffffffffffffff021916908373ffffffffffffffffffffffffffffffffffffffff160217905550808273ffffffffffffffffffffffffffffffffffffffff168473ffffffffffffffffffffffffffffffffffffffff167fddf252ad1be2c89b69c2b068fc378daa952ba7f163c4a11628f55a4df523b3ef60405160405180910390a4505050565b600061303b8473ffffffffffffffffffffffffffffffffffffffff16613301565b6130485760019050613202565b60008473ffffffffffffffffffffffffffffffffffffffff1663150b7a0261306e61294d565b8887876040518563ffffffff1660e01b8152600401808573ffffffffffffffffffffffffffffffffffffffff1673ffffffffffffffffffffffffffffffffffffffff1681526020018473ffffffffffffffffffffffffffffffffffffffff1673ffffffffffffffffffffffffffffffffffffffff16815260200183815260200180602001828103825283818151815260200191508051906020019080838360005b8381101561312a57808201518184015260208101905061310f565b50505050905090810190601f1680156131575780820380516001836020036101000a031916815260200191505b5095505050505050602060405180830381600087803b15801561317957600080fd5b505af115801561318d573d6000803e3d6000fd5b505050506040513d60208110156131a357600080fd5b8101908080519060200190929190505050905063150b7a0260e01b7bffffffffffffffffffffffffffffffffffffffffffffffffffffffff1916817bffffffffffffffffffffffffffffffffffffffffffffffffffffffff1916149150505b949350505050565b600073ffffffffffffffffffffffffffffffffffffffff166009600083815260200190815260200160002060009054906101000a900473ffffffffffffffffffffffffffffffffffffffff1673ffffffffffffffffffffffffffffffffffffffff16146132c55760006009600083815260200190815260200160002060006101000a81548173ffffffffffffffffffffffffffffffffffffffff021916908373ffffffffffffffffffffffffffffffffffffffff1602179055505b50565b6132e0600182600001546125e990919063ffffffff16565b816000018190555050565b6001816000016000828254019250508190555050565b60008060007fc5d2460186f7233c927e7db2dcc703c0e500b653ca82273b7bfad8045d85a47060001b9050833f91506000801b82141580156133435750808214155b92505050919050565b828054600181600116156101000203166002900490600052602060002090601f016020900481019282601f1061338d57805160ff19168380011785556133bb565b828001600101855582156133bb579182015b828111156133ba57825182559160200191906001019061339f565b5b5090506133c891906133cc565b5090565b6133ee91905b808211156133ea5760008160009055506001016133d2565b5090565b9056fe4552433732313a207472616e7366657220746f206e6f6e20455243373231526563656976657220696d706c656d656e7465724f776e61626c653a206e6577206f776e657220697320746865207a65726f20616464726573734552433732313a207472616e7366657220746f20746865207a65726f20616464726573734552433732313a206f70657261746f7220717565727920666f72206e6f6e6578697374656e7420746f6b656e4552433732313a207472616e73666572206f6620746f6b656e2074686174206973206e6f74206f776e4552433732313a207472616e736665722063616c6c6572206973206e6f74206f776e6572206e6f7220617070726f766564a265627a7a72315820ee7c959ffa181f135441980901e1229c423650012dd0b2998f39c4da58dc682464736f6c634300050c0032",
  "source": "pragma solidity ^0.5.8;\n\nimport \"./ColaOwnership.sol\";\n\ncontract ColaPresentation is ColaOwnership {\n\tstruct Auction {\n\t\taddress seller;\n\t\tuint price;\n\t\tbool isOn;\n\t}\n\n\tmapping (uint => Auction) public colaToAuction;\n\n\tfunction isOnAuction(Auction storage _auction) internal view returns(bool) {\n\t\treturn _auction.isOn;\n\t}\n\n\tfunction removeAuction(uint _colaId) internal {\n\t\tdelete colaToAuction[_colaId];\n\t}\n\n\tfunction getCountByOwner(address _owner) public view returns(uint) {\n\t\tuint count = 0;\n\t\tfor (uint i = 0; i < colas.length; ++i) \n\t\t\tif ((colaToOwner[i] == _owner) || ((isOnAuction(colaToAuction[i])) && (colaToAuction[i].seller == _owner)))\n\t\t\t\tcount++;\n\t\treturn count;\n\t}\n\n        function getColaByOwner(address _owner) public view returns(uint[] memory) {\n\t\tuint count = 0;\n                for (uint i = 0; i < colas.length; ++i) \n                        if ((colaToOwner[i] == _owner) || (isOnAuction(colaToAuction[i]) && (colaToAuction[i].seller == _owner))) \n\t\t\t\tcount++;\n\t\tuint[] memory result = new uint[](count);\n\t\tcount = 0;\n\t\tfor (uint i = 0; i < colas.length; ++i) \n                        if ((colaToOwner[i] == _owner) || (isOnAuction(colaToAuction[i]) && (colaToAuction[i].seller == _owner))) {\n\t\t\t\tresult[count] = i;\n\t\t\t\tcount++;\n                        }\n\t\treturn result;\n        }\n        \n        function getColaMarket() public view returns(uint[] memory) {\n\t\tuint count = 0;\n                for (uint i = 0; i < colas.length; ++i) \n                        if (isOnAuction(colaToAuction[i])) count++;\n\t\tuint[] memory result = new uint[](count);\n\t\tcount = 0;\n\t\tfor (uint i = 0; i < colas.length; ++i)\n\t\t\tif (isOnAuction(colaToAuction[i])){\n\t\t\t\tresult[count] = i;\n\t\t\t\tcount++;\n\t\t\t}\n\t\treturn result;\n        }\n\n        function sellCola(uint _colaId, uint _price) external {\n                require(msg.sender == colaToOwner[_colaId]);\n\t\tcolaToAuction[_colaId] = Auction(msg.sender, _price*10**18, true);\n\t\ttransferFrom(msg.sender, address(this), _colaId);\n        }\n\n\tfunction cancelSellCola(uint _colaId) external {\n\t\trequire(isOnAuction(colaToAuction[_colaId]));\n\t\trequire(msg.sender == colaToAuction[_colaId].seller);\n\t\ttransferFrom(address(this), msg.sender, _colaId);\n\t\tremoveAuction(_colaId);\n\t}\n\n        function buyCola(uint _colaId) external payable {\n\t\trequire(isOnAuction(colaToAuction[_colaId]), \"not in sale\");\n\t\trequire(colaToAuction[_colaId].price <= msg.sender.balance, \"you don't have enough money\");\n                address payable seller = address(uint160(colaToAuction[_colaId].seller));\n                seller.transfer(colaToAuction[_colaId].price);\n\t\ttransferFrom(address(this), msg.sender, _colaId);\n\t\tremoveAuction(_colaId);\n        }\n}\n",
  "sourcePath": "/home/procedure2012/Project/CryptoCola/contracts/ColaPresentation.sol",
  "compiler": {
    "name": "solc",
    "version": "0.5.12+commit.7709ece9.Emscripten.clang"
  },
  "schemaVersion": "3.0.19",
  "updatedAt": "2020-01-14T20:59:25.029Z",
  "devdoc": {
    "methods": {
      "isApprovedForAll(address,address)": {
        "details": "Tells whether an operator is approved by a given owner.",
        "params": {
          "operator": "operator address which you want to query the approval of",
          "owner": "owner address which you want to query the approval of"
        },
        "return": "bool whether the given operator is approved by the given owner"
      },
      "isOwner()": {
        "details": "Returns true if the caller is the current owner."
      },
      "owner()": {
        "details": "Returns the address of the current owner."
      },
      "renounceOwnership()": {
        "details": "Leaves the contract without owner. It will not be possible to call `onlyOwner` functions anymore. Can only be called by the current owner.     * NOTE: Renouncing ownership will leave the contract without an owner, thereby removing any functionality that is only available to the owner."
      },
      "safeTransferFrom(address,address,uint256)": {
        "details": "Safely transfers the ownership of a given token ID to another address If the target address is a contract, it must implement {IERC721Receiver-onERC721Received}, which is called upon a safe transfer, and return the magic value `bytes4(keccak256(\"onERC721Received(address,address,uint256,bytes)\"))`; otherwise, the transfer is reverted. Requires the msg.sender to be the owner, approved, or operator",
        "params": {
          "from": "current owner of the token",
          "to": "address to receive the ownership of the given token ID",
          "tokenId": "uint256 ID of the token to be transferred"
        }
      },
      "safeTransferFrom(address,address,uint256,bytes)": {
        "details": "Safely transfers the ownership of a given token ID to another address If the target address is a contract, it must implement {IERC721Receiver-onERC721Received}, which is called upon a safe transfer, and return the magic value `bytes4(keccak256(\"onERC721Received(address,address,uint256,bytes)\"))`; otherwise, the transfer is reverted. Requires the _msgSender() to be the owner, approved, or operator",
        "params": {
          "_data": "bytes data to send along with a safe transfer check",
          "from": "current owner of the token",
          "to": "address to receive the ownership of the given token ID",
          "tokenId": "uint256 ID of the token to be transferred"
        }
      },
      "setApprovalForAll(address,bool)": {
        "details": "Sets or unsets the approval of a given operator An operator is allowed to transfer all tokens of the sender on their behalf.",
        "params": {
          "approved": "representing the status of the approval to be set",
          "to": "operator address to set the approval"
        }
      },
      "supportsInterface(bytes4)": {
        "details": "See {IERC165-supportsInterface}.     * Time complexity O(1), guaranteed to always use less than 30 000 gas."
      },
      "transferOwnership(address)": {
        "details": "Transfers ownership of the contract to a new account (`newOwner`). Can only be called by the current owner."
      }
    }
  },
  "userdoc": {
    "methods": {}
  }
}