{
  "contractName": "ColaPresentation",
  "abi": [
    {
      "anonymous": false,
      "inputs": [
        {
          "indexed": true,
          "internalType": "address",
          "name": "owner",
          "type": "address"
        },
        {
          "indexed": true,
          "internalType": "address",
          "name": "approved",
          "type": "address"
        },
        {
          "indexed": true,
          "internalType": "uint256",
          "name": "tokenId",
          "type": "uint256"
        }
      ],
      "name": "Approval",
      "type": "event"
    },
    {
      "anonymous": false,
      "inputs": [
        {
          "indexed": false,
          "internalType": "uint256",
          "name": "colaId",
          "type": "uint256"
        },
        {
          "indexed": false,
          "internalType": "string",
          "name": "name",
          "type": "string"
        },
        {
          "indexed": false,
          "internalType": "uint256",
          "name": "code",
          "type": "uint256"
        }
      ],
      "name": "NewCola",
      "type": "event"
    },
    {
      "anonymous": false,
      "inputs": [
        {
          "indexed": true,
          "internalType": "address",
          "name": "from",
          "type": "address"
        },
        {
          "indexed": true,
          "internalType": "address",
          "name": "to",
          "type": "address"
        },
        {
          "indexed": true,
          "internalType": "uint256",
          "name": "tokenId",
          "type": "uint256"
        }
      ],
      "name": "Transfer",
      "type": "event"
    },
    {
      "constant": false,
      "inputs": [
        {
          "internalType": "address",
          "name": "_approved",
          "type": "address"
        },
        {
          "internalType": "uint256",
          "name": "_tokenId",
          "type": "uint256"
        }
      ],
      "name": "approve",
      "outputs": [],
      "payable": false,
      "stateMutability": "nonpayable",
      "type": "function"
    },
    {
      "constant": true,
      "inputs": [
        {
          "internalType": "address",
          "name": "_owner",
          "type": "address"
        }
      ],
      "name": "balanceOf",
      "outputs": [
        {
          "internalType": "uint256",
          "name": "_balance",
          "type": "uint256"
        }
      ],
      "payable": false,
      "stateMutability": "view",
      "type": "function"
    },
    {
      "constant": true,
      "inputs": [
        {
          "internalType": "uint256",
          "name": "",
          "type": "uint256"
        }
      ],
      "name": "colaToAuction",
      "outputs": [
        {
          "internalType": "address",
          "name": "seller",
          "type": "address"
        },
        {
          "internalType": "uint256",
          "name": "price",
          "type": "uint256"
        },
        {
          "internalType": "bool",
          "name": "isOn",
          "type": "bool"
        }
      ],
      "payable": false,
      "stateMutability": "view",
      "type": "function"
    },
    {
      "constant": true,
      "inputs": [
        {
          "internalType": "uint256",
          "name": "",
          "type": "uint256"
        }
      ],
      "name": "colaToOwner",
      "outputs": [
        {
          "internalType": "address",
          "name": "",
          "type": "address"
        }
      ],
      "payable": false,
      "stateMutability": "view",
      "type": "function"
    },
    {
      "constant": true,
      "inputs": [
        {
          "internalType": "uint256",
          "name": "",
          "type": "uint256"
        }
      ],
      "name": "colas",
      "outputs": [
        {
          "internalType": "string",
          "name": "name",
          "type": "string"
        },
        {
          "internalType": "uint256",
          "name": "code",
          "type": "uint256"
        },
        {
          "internalType": "uint8",
          "name": "level",
          "type": "uint8"
        },
        {
          "internalType": "uint32",
          "name": "readyTime",
          "type": "uint32"
        }
      ],
      "payable": false,
      "stateMutability": "view",
      "type": "function"
    },
    {
      "constant": true,
      "inputs": [
        {
          "internalType": "uint256",
          "name": "_tokenId",
          "type": "uint256"
        }
      ],
      "name": "getApproved",
      "outputs": [
        {
          "internalType": "address",
          "name": "",
          "type": "address"
        }
      ],
      "payable": false,
      "stateMutability": "view",
      "type": "function"
    },
    {
      "constant": true,
      "inputs": [],
      "name": "getCooldownTime",
      "outputs": [
        {
          "internalType": "uint32",
          "name": "",
          "type": "uint32"
        }
      ],
      "payable": false,
      "stateMutability": "view",
      "type": "function"
    },
    {
      "constant": false,
      "inputs": [
        {
          "internalType": "string",
          "name": "_name",
          "type": "string"
        },
        {
          "internalType": "uint256",
          "name": "_colaId1",
          "type": "uint256"
        },
        {
          "internalType": "uint256",
          "name": "_colaId2",
          "type": "uint256"
        }
      ],
      "name": "mixCola",
      "outputs": [],
      "payable": false,
      "stateMutability": "nonpayable",
      "type": "function"
    },
    {
      "constant": true,
      "inputs": [
        {
          "internalType": "address",
          "name": "",
          "type": "address"
        }
      ],
      "name": "ownerColaCount",
      "outputs": [
        {
          "internalType": "uint256",
          "name": "",
          "type": "uint256"
        }
      ],
      "payable": false,
      "stateMutability": "view",
      "type": "function"
    },
    {
      "constant": true,
      "inputs": [
        {
          "internalType": "uint256",
          "name": "_tokenId",
          "type": "uint256"
        }
      ],
      "name": "ownerOf",
      "outputs": [
        {
          "internalType": "address",
          "name": "_owner",
          "type": "address"
        }
      ],
      "payable": false,
      "stateMutability": "view",
      "type": "function"
    },
    {
      "constant": false,
      "inputs": [
        {
          "internalType": "string",
          "name": "_name",
          "type": "string"
        }
      ],
      "name": "produceRandomCola",
      "outputs": [],
      "payable": true,
      "stateMutability": "payable",
      "type": "function"
    },
    {
      "constant": false,
      "inputs": [
        {
          "internalType": "uint32",
          "name": "_cooldownTime",
          "type": "uint32"
        }
      ],
      "name": "setCooldownTime",
      "outputs": [],
      "payable": false,
      "stateMutability": "nonpayable",
      "type": "function"
    },
    {
      "constant": false,
      "inputs": [
        {
          "internalType": "address",
          "name": "_newOwner",
          "type": "address"
        }
      ],
      "name": "setOwner",
      "outputs": [],
      "payable": false,
      "stateMutability": "nonpayable",
      "type": "function"
    },
    {
      "constant": false,
      "inputs": [
        {
          "internalType": "uint256",
          "name": "_tokenId",
          "type": "uint256"
        }
      ],
      "name": "takeOwnership",
      "outputs": [],
      "payable": false,
      "stateMutability": "nonpayable",
      "type": "function"
    },
    {
      "constant": false,
      "inputs": [
        {
          "internalType": "address",
          "name": "_from",
          "type": "address"
        },
        {
          "internalType": "address",
          "name": "_to",
          "type": "address"
        },
        {
          "internalType": "uint256",
          "name": "_tokenId",
          "type": "uint256"
        }
      ],
      "name": "transferFrom",
      "outputs": [],
      "payable": false,
      "stateMutability": "nonpayable",
      "type": "function"
    },
    {
      "constant": true,
      "inputs": [
        {
          "internalType": "address",
          "name": "_owner",
          "type": "address"
        }
      ],
      "name": "getCountByOwner",
      "outputs": [
        {
          "internalType": "uint256",
          "name": "",
          "type": "uint256"
        }
      ],
      "payable": false,
      "stateMutability": "view",
      "type": "function"
    },
    {
      "constant": true,
      "inputs": [
        {
          "internalType": "address",
          "name": "_owner",
          "type": "address"
        }
      ],
      "name": "getColaByOwner",
      "outputs": [
        {
          "internalType": "uint256[]",
          "name": "",
          "type": "uint256[]"
        }
      ],
      "payable": false,
      "stateMutability": "view",
      "type": "function"
    },
    {
      "constant": true,
      "inputs": [],
      "name": "getColaMarket",
      "outputs": [
        {
          "internalType": "uint256[]",
          "name": "",
          "type": "uint256[]"
        }
      ],
      "payable": false,
      "stateMutability": "view",
      "type": "function"
    },
    {
      "constant": false,
      "inputs": [
        {
          "internalType": "uint256",
          "name": "_colaId",
          "type": "uint256"
        },
        {
          "internalType": "uint256",
          "name": "_price",
          "type": "uint256"
        }
      ],
      "name": "sellCola",
      "outputs": [],
      "payable": false,
      "stateMutability": "nonpayable",
      "type": "function"
    },
    {
      "constant": false,
      "inputs": [
        {
          "internalType": "uint256",
          "name": "_colaId",
          "type": "uint256"
        }
      ],
      "name": "cancelSellCola",
      "outputs": [],
      "payable": false,
      "stateMutability": "nonpayable",
      "type": "function"
    },
    {
      "constant": false,
      "inputs": [
        {
          "internalType": "uint256",
          "name": "_colaId",
          "type": "uint256"
        }
      ],
      "name": "buyCola",
      "outputs": [],
      "payable": true,
      "stateMutability": "payable",
      "type": "function"
    }
  ],
  "bytecode": "0x60806040526010600055600054600a0a60015573d180b9c883f692dfb4e01ad3b76d1c8cef5f969f600260006101000a81548173ffffffffffffffffffffffffffffffffffffffff021916908373ffffffffffffffffffffffffffffffffffffffff160217905550603c600660006101000a81548163ffffffff021916908363ffffffff16021790555034801561009557600080fd5b506123c2806100a56000396000f3fe60806040526004361061012a5760003560e01c80636aba56e9116100ab578063afd9b9001161006f578063afd9b900146107ba578063b2e6ceeb14610875578063c7616ae3146108b0578063cd9e9383146108f1578063edd963ac14610997578063f94a866b146109fc5761012a565b80636aba56e91461065057806370a082311461068b5780638f2a02b4146106f05780639ab89838146107275780639dcc9904146107555761012a565b806335e2e27a116100f257806335e2e27a1461034c5780633eb082291461042857806356077b091461046d5780636352211e146104fa578063658e2308146105755761012a565b806301c3fe671461012f578063081812fc146101aa578063095ea7b31461022557806313af40351461028057806323b872dd146102d1575b600080fd5b34801561013b57600080fd5b506101686004803603602081101561015257600080fd5b8101908080359060200190929190505050610a68565b604051808273ffffffffffffffffffffffffffffffffffffffff1673ffffffffffffffffffffffffffffffffffffffff16815260200191505060405180910390f35b3480156101b657600080fd5b506101e3600480360360208110156101cd57600080fd5b8101908080359060200190929190505050610a9b565b604051808273ffffffffffffffffffffffffffffffffffffffff1673ffffffffffffffffffffffffffffffffffffffff16815260200191505060405180910390f35b34801561023157600080fd5b5061027e6004803603604081101561024857600080fd5b81019080803573ffffffffffffffffffffffffffffffffffffffff16906020019092919080359060200190929190505050610ad8565b005b34801561028c57600080fd5b506102cf600480360360208110156102a357600080fd5b81019080803573ffffffffffffffffffffffffffffffffffffffff169060200190929190505050610bf4565b005b3480156102dd57600080fd5b5061034a600480360360608110156102f457600080fd5b81019080803573ffffffffffffffffffffffffffffffffffffffff169060200190929190803573ffffffffffffffffffffffffffffffffffffffff16906020019092919080359060200190929190505050610c92565b005b34801561035857600080fd5b506104266004803603606081101561036f57600080fd5b810190808035906020019064010000000081111561038c57600080fd5b82018360208201111561039e57600080fd5b803590602001918460018302840111640100000000831117156103c057600080fd5b91908080601f016020809104026020016040519081016040528093929190818152602001838380828437600081840152601f19601f8201169050808301925050505050505091929192908035906020019092919080359060200190929190505050610f11565b005b34801561043457600080fd5b5061046b6004803603604081101561044b57600080fd5b8101908080359060200190929190803590602001909291905050506110b5565b005b34801561047957600080fd5b506104a66004803603602081101561049057600080fd5b81019080803590602001909291905050506111f4565b604051808473ffffffffffffffffffffffffffffffffffffffff1673ffffffffffffffffffffffffffffffffffffffff16815260200183815260200182151515158152602001935050505060405180910390f35b34801561050657600080fd5b506105336004803603602081101561051d57600080fd5b810190808035906020019092919050505061124b565b604051808273ffffffffffffffffffffffffffffffffffffffff1673ffffffffffffffffffffffffffffffffffffffff16815260200191505060405180910390f35b34801561058157600080fd5b506105ae6004803603602081101561059857600080fd5b8101908080359060200190929190505050611288565b60405180806020018581526020018460ff1660ff1681526020018363ffffffff1663ffffffff168152602001828103825286818151815260200191508051906020019080838360005b838110156106125780820151818401526020810190506105f7565b50505050905090810190601f16801561063f5780820380516001836020036101000a031916815260200191505b509550505050505060405180910390f35b34801561065c57600080fd5b506106896004803603602081101561067357600080fd5b810190808035906020019092919050505061137a565b005b34801561069757600080fd5b506106da600480360360208110156106ae57600080fd5b81019080803573ffffffffffffffffffffffffffffffffffffffff169060200190929190505050611423565b6040518082815260200191505060405180910390f35b3480156106fc57600080fd5b5061070561146c565b604051808263ffffffff1663ffffffff16815260200191505060405180910390f35b6107536004803603602081101561073d57600080fd5b8101908080359060200190929190505050611486565b005b34801561076157600080fd5b506107a46004803603602081101561077857600080fd5b81019080803573ffffffffffffffffffffffffffffffffffffffff16906020019092919050505061165c565b6040518082815260200191505060405180910390f35b610873600480360360208110156107d057600080fd5b81019080803590602001906401000000008111156107ed57600080fd5b8201836020820111156107ff57600080fd5b8035906020019184600183028401116401000000008311171561082157600080fd5b91908080601f016020809104026020016040519081016040528093929190818152602001838380828437600081840152601f19601f820116905080830192505050505050509192919290505050611674565b005b34801561088157600080fd5b506108ae6004803603602081101561089857600080fd5b81019080803590602001909291905050506117f3565b005b3480156108bc57600080fd5b506108ef600480360360208110156108d357600080fd5b81019080803563ffffffff169060200190929190505050611874565b005b3480156108fd57600080fd5b506109406004803603602081101561091457600080fd5b81019080803573ffffffffffffffffffffffffffffffffffffffff1690602001909291905050506118f2565b6040518080602001828103825283818151815260200191508051906020019060200280838360005b83811015610983578082015181840152602081019050610968565b505050509050019250505060405180910390f35b3480156109a357600080fd5b506109e6600480360360208110156109ba57600080fd5b81019080803573ffffffffffffffffffffffffffffffffffffffff169060200190929190505050611b90565b6040518082815260200191505060405180910390f35b348015610a0857600080fd5b50610a11611cbe565b6040518080602001828103825283818151815260200191508051906020019060200280838360005b83811015610a54578082015181840152602081019050610a39565b505050509050019250505060405180910390f35b60046020528060005260406000206000915054906101000a900473ffffffffffffffffffffffffffffffffffffffff1681565b60006007600083815260200190815260200160002060009054906101000a900473ffffffffffffffffffffffffffffffffffffffff169050919050565b6004600082815260200190815260200160002060009054906101000a900473ffffffffffffffffffffffffffffffffffffffff1673ffffffffffffffffffffffffffffffffffffffff163373ffffffffffffffffffffffffffffffffffffffff1614610b4357600080fd5b816007600083815260200190815260200160002060006101000a81548173ffffffffffffffffffffffffffffffffffffffff021916908373ffffffffffffffffffffffffffffffffffffffff160217905550808273ffffffffffffffffffffffffffffffffffffffff163373ffffffffffffffffffffffffffffffffffffffff167f8c5be1e5ebec7d5bd14f71427d1e84f3dd0314c0f7b2291e5b200ac8c7c3b92560405160405180910390a45050565b600260009054906101000a900473ffffffffffffffffffffffffffffffffffffffff1673ffffffffffffffffffffffffffffffffffffffff163373ffffffffffffffffffffffffffffffffffffffff1614610c4e57600080fd5b80600260006101000a81548173ffffffffffffffffffffffffffffffffffffffff021916908373ffffffffffffffffffffffffffffffffffffffff16021790555050565b3073ffffffffffffffffffffffffffffffffffffffff168373ffffffffffffffffffffffffffffffffffffffff161480610d2a57506004600082815260200190815260200160002060009054906101000a900473ffffffffffffffffffffffffffffffffffffffff1673ffffffffffffffffffffffffffffffffffffffff163373ffffffffffffffffffffffffffffffffffffffff16145b610d3357600080fd5b610d866001600560008573ffffffffffffffffffffffffffffffffffffffff1673ffffffffffffffffffffffffffffffffffffffff16815260200190815260200160002054611dae90919063ffffffff16565b600560008473ffffffffffffffffffffffffffffffffffffffff1673ffffffffffffffffffffffffffffffffffffffff16815260200190815260200160002081905550610e1c6001600560008673ffffffffffffffffffffffffffffffffffffffff1673ffffffffffffffffffffffffffffffffffffffff16815260200190815260200160002054611e3690919063ffffffff16565b600560008573ffffffffffffffffffffffffffffffffffffffff1673ffffffffffffffffffffffffffffffffffffffff16815260200190815260200160002081905550816004600083815260200190815260200160002060006101000a81548173ffffffffffffffffffffffffffffffffffffffff021916908373ffffffffffffffffffffffffffffffffffffffff160217905550808273ffffffffffffffffffffffffffffffffffffffff168473ffffffffffffffffffffffffffffffffffffffff167fddf252ad1be2c89b69c2b068fc378daa952ba7f163c4a11628f55a4df523b3ef60405160405180910390a4505050565b6004600083815260200190815260200160002060009054906101000a900473ffffffffffffffffffffffffffffffffffffffff1673ffffffffffffffffffffffffffffffffffffffff163373ffffffffffffffffffffffffffffffffffffffff16148015610fdd57506004600082815260200190815260200160002060009054906101000a900473ffffffffffffffffffffffffffffffffffffffff1673ffffffffffffffffffffffffffffffffffffffff163373ffffffffffffffffffffffffffffffffffffffff16145b610fe657600080fd5b600060038381548110610ff557fe5b9060005260206000209060030201905060006003838154811061101457fe5b9060005260206000209060030201905061102d82611e80565b801561103e575061103d81611e80565b5b156110ae57600060026003858154811061105457fe5b9060005260206000209060030201600101546003878154811061107357fe5b906000526020600020906003020160010154018161108d57fe5b04905061109a8682611ea7565b6110a3836120e3565b6110ac826120e3565b505b5050505050565b6004600083815260200190815260200160002060009054906101000a900473ffffffffffffffffffffffffffffffffffffffff1673ffffffffffffffffffffffffffffffffffffffff163373ffffffffffffffffffffffffffffffffffffffff161461112057600080fd5b60405180606001604052803373ffffffffffffffffffffffffffffffffffffffff168152602001670de0b6b3a764000083028152602001600115158152506008600084815260200190815260200160002060008201518160000160006101000a81548173ffffffffffffffffffffffffffffffffffffffff021916908373ffffffffffffffffffffffffffffffffffffffff1602179055506020820151816001015560408201518160020160006101000a81548160ff0219169083151502179055509050506111f0333084610c92565b5050565b60086020528060005260406000206000915090508060000160009054906101000a900473ffffffffffffffffffffffffffffffffffffffff16908060010154908060020160009054906101000a900460ff16905083565b60006004600083815260200190815260200160002060009054906101000a900473ffffffffffffffffffffffffffffffffffffffff169050919050565b6003818154811061129557fe5b9060005260206000209060030201600091509050806000018054600181600116156101000203166002900480601f0160208091040260200160405190810160405280929190818152602001828054600181600116156101000203166002900480156113415780601f1061131657610100808354040283529160200191611341565b820191906000526020600020905b81548152906001019060200180831161132457829003601f168201915b5050505050908060010154908060020160009054906101000a900460ff16908060020160019054906101000a900463ffffffff16905084565b61139560086000838152602001908152602001600020612123565b61139e57600080fd5b6008600082815260200190815260200160002060000160009054906101000a900473ffffffffffffffffffffffffffffffffffffffff1673ffffffffffffffffffffffffffffffffffffffff163373ffffffffffffffffffffffffffffffffffffffff161461140c57600080fd5b611417303383610c92565b6114208161213e565b50565b6000600560008373ffffffffffffffffffffffffffffffffffffffff1673ffffffffffffffffffffffffffffffffffffffff168152602001908152602001600020549050919050565b6000600660009054906101000a900463ffffffff16905090565b6114a160086000838152602001908152602001600020612123565b611513576040517f08c379a000000000000000000000000000000000000000000000000000000000815260040180806020018281038252600b8152602001807f6e6f7420696e2073616c6500000000000000000000000000000000000000000081525060200191505060405180910390fd5b6008600082815260200190815260200160002060010154341461153557600080fd5b3373ffffffffffffffffffffffffffffffffffffffff16313411156115c2576040517f08c379a000000000000000000000000000000000000000000000000000000000815260040180806020018281038252601b8152602001807f796f7520646f6e2774206861766520656e6f756768206d6f6e6579000000000081525060200191505060405180910390fd5b60006008600083815260200190815260200160002060000160009054906101000a900473ffffffffffffffffffffffffffffffffffffffff1690508073ffffffffffffffffffffffffffffffffffffffff166108fc349081150290604051600060405180830381858888f19350505050158015611643573d6000803e3d6000fd5b5061164f303384610c92565b6116588261213e565b5050565b60056020528060005260406000206000915090505481565b6002600560003373ffffffffffffffffffffffffffffffffffffffff1673ffffffffffffffffffffffffffffffffffffffff16815260200190815260200160002054106116c057600080fd5b671bc16d674ec800003373ffffffffffffffffffffffffffffffffffffffff16311015611755576040517f08c379a00000000000000000000000000000000000000000000000000000000081526004018080602001828103825260108152602001807f696e73756666696369656e74204554480000000000000000000000000000000081525060200191505060405180910390fd5b671bc16d674ec80000341461176957600080fd5b6000600260009054906101000a900473ffffffffffffffffffffffffffffffffffffffff1690508073ffffffffffffffffffffffffffffffffffffffff166108fc349081150290604051600060405180830381858888f193505050501580156117d6573d6000803e3d6000fd5b5060006117e28361219a565b90506117ee8382611ea7565b505050565b6007600082815260200190815260200160002060009054906101000a900473ffffffffffffffffffffffffffffffffffffffff1673ffffffffffffffffffffffffffffffffffffffff163373ffffffffffffffffffffffffffffffffffffffff161461185e57600080fd5b61187161186a8261124b565b3383610c92565b50565b600260009054906101000a900473ffffffffffffffffffffffffffffffffffffffff1673ffffffffffffffffffffffffffffffffffffffff163373ffffffffffffffffffffffffffffffffffffffff16146118ce57600080fd5b80600660006101000a81548163ffffffff021916908363ffffffff16021790555050565b6060600080905060008090505b600380549050811015611a16578373ffffffffffffffffffffffffffffffffffffffff166004600083815260200190815260200160002060009054906101000a900473ffffffffffffffffffffffffffffffffffffffff1673ffffffffffffffffffffffffffffffffffffffff1614806119fd575061198f60086000838152602001908152602001600020612123565b80156119fc57508373ffffffffffffffffffffffffffffffffffffffff166008600083815260200190815260200160002060000160009054906101000a900473ffffffffffffffffffffffffffffffffffffffff1673ffffffffffffffffffffffffffffffffffffffff16145b5b15611a0b5781806001019250505b8060010190506118ff565b50606081604051908082528060200260200182016040528015611a485781602001602082028038833980820191505090505b5090506000915060008090505b600380549050811015611b85578473ffffffffffffffffffffffffffffffffffffffff166004600083815260200190815260200160002060009054906101000a900473ffffffffffffffffffffffffffffffffffffffff1673ffffffffffffffffffffffffffffffffffffffff161480611b535750611ae560086000838152602001908152602001600020612123565b8015611b5257508473ffffffffffffffffffffffffffffffffffffffff166008600083815260200190815260200160002060000160009054906101000a900473ffffffffffffffffffffffffffffffffffffffff1673ffffffffffffffffffffffffffffffffffffffff16145b5b15611b7a5780828481518110611b6557fe5b60200260200101818152505082806001019350505b806001019050611a55565b508092505050919050565b6000806000905060008090505b600380549050811015611cb4578373ffffffffffffffffffffffffffffffffffffffff166004600083815260200190815260200160002060009054906101000a900473ffffffffffffffffffffffffffffffffffffffff1673ffffffffffffffffffffffffffffffffffffffff161480611c9b5750611c2d60086000838152602001908152602001600020612123565b8015611c9a57508373ffffffffffffffffffffffffffffffffffffffff166008600083815260200190815260200160002060000160009054906101000a900473ffffffffffffffffffffffffffffffffffffffff1673ffffffffffffffffffffffffffffffffffffffff16145b5b15611ca95781806001019250505b806001019050611b9d565b5080915050919050565b6060600080905060008090505b600380549050811015611d0c57611cf360086000838152602001908152602001600020612123565b15611d015781806001019250505b806001019050611ccb565b50606081604051908082528060200260200182016040528015611d3e5781602001602082028038833980820191505090505b5090506000915060008090505b600380549050811015611da557611d7360086000838152602001908152602001600020612123565b15611d9a5780828481518110611d8557fe5b60200260200101818152505082806001019350505b806001019050611d4b565b50809250505090565b600080828401905083811015611e2c576040517f08c379a000000000000000000000000000000000000000000000000000000000815260040180806020018281038252601b8152602001807f536166654d6174683a206164646974696f6e206f766572666c6f77000000000081525060200191505060405180910390fd5b8091505092915050565b6000611e7883836040518060400160405280601e81526020017f536166654d6174683a207375627472616374696f6e206f766572666c6f770000815250612228565b905092915050565b6000428260020160019054906101000a900463ffffffff1663ffffffff1611159050919050565b6000600160036040518060800160405280868152602001858152602001600060ff168152602001600660009054906101000a900463ffffffff1663ffffffff16420163ffffffff16815250908060018154018082558091505090600182039060005260206000209060030201600090919290919091506000820151816000019080519060200190611f399291906122e8565b506020820151816001015560408201518160020160006101000a81548160ff021916908360ff16021790555060608201518160020160016101000a81548163ffffffff021916908363ffffffff1602179055505050039050336004600083815260200190815260200160002060006101000a81548173ffffffffffffffffffffffffffffffffffffffff021916908373ffffffffffffffffffffffffffffffffffffffff160217905550600560003373ffffffffffffffffffffffffffffffffffffffff1673ffffffffffffffffffffffffffffffffffffffff168152602001908152602001600020600081548092919060010191905055507fa64b6d0dcd584cf22e064bd7e637a7ebc7fe4f635054a8372c1a56b34b2b728b8184846040518084815260200180602001838152602001828103825284818151815260200191508051906020019080838360005b838110156120a2578082015181840152602081019050612087565b50505050905090810190601f1680156120cf5780820380516001836020036101000a031916815260200191505b5094505050505060405180910390a1505050565b600660009054906101000a900463ffffffff1663ffffffff1642018160020160016101000a81548163ffffffff021916908363ffffffff16021790555050565b60008160020160009054906101000a900460ff169050919050565b60086000828152602001908152602001600020600080820160006101000a81549073ffffffffffffffffffffffffffffffffffffffff021916905560018201600090556002820160006101000a81549060ff0219169055505050565b600080826040516020018082805190602001908083835b602083106121d457805182526020820191506020810190506020830392506121b1565b6001836020036101000a0380198251168184511680821785525050505050509050019150506040516020818303038152906040528051906020012060001c9050600154818161221f57fe5b06915050919050565b60008383111582906122d5576040517f08c379a00000000000000000000000000000000000000000000000000000000081526004018080602001828103825283818151815260200191508051906020019080838360005b8381101561229a57808201518184015260208101905061227f565b50505050905090810190601f1680156122c75780820380516001836020036101000a031916815260200191505b509250505060405180910390fd5b5060008385039050809150509392505050565b828054600181600116156101000203166002900490600052602060002090601f016020900481019282601f1061232957805160ff1916838001178555612357565b82800160010185558215612357579182015b8281111561235657825182559160200191906001019061233b565b5b5090506123649190612368565b5090565b61238a91905b8082111561238657600081600090555060010161236e565b5090565b9056fea265627a7a7231582076908a9fb4ee0253996a3383fdf4b27272c7ec1026ae433f8f92ac444f96addc64736f6c634300050c0032",
  "source": "pragma solidity ^0.5.8;\r\n\r\nimport \"./ColaOwnership.sol\";\r\n\r\ncontract ColaPresentation is ColaOwnership {\r\n\tstruct Auction {\r\n\t\taddress seller;\r\n\t\tuint price;\r\n\t\tbool isOn;\r\n\t}\r\n\r\n\tmapping (uint => Auction) public colaToAuction;\r\n\r\n\tfunction isOnAuction(Auction storage _auction) internal view returns(bool) {\r\n\t\treturn _auction.isOn;\r\n\t}\r\n\r\n\tfunction removeAuction(uint _colaId) internal {\r\n\t\tdelete colaToAuction[_colaId];\r\n\t}\r\n\r\n\tfunction getCountByOwner(address _owner) public view returns(uint) {\r\n\t\tuint count = 0;\r\n\t\tfor (uint i = 0; i < colas.length; ++i) \r\n\t\t\tif ((colaToOwner[i] == _owner) || ((isOnAuction(colaToAuction[i])) && (colaToAuction[i].seller == _owner)))\r\n\t\t\t\tcount++;\r\n\t\treturn count;\r\n\t}\r\n\r\n    function getColaByOwner(address _owner) public view returns(uint[] memory) {\r\n\t\tuint count = 0;\r\n        for (uint i = 0; i < colas.length; ++i) \r\n            if ((colaToOwner[i] == _owner) || (isOnAuction(colaToAuction[i]) && (colaToAuction[i].seller == _owner))) \r\n\t\t\t\tcount++;\r\n\t\tuint[] memory result = new uint[](count);\r\n\t\tcount = 0;\r\n\t\tfor (uint i = 0; i < colas.length; ++i) \r\n            if ((colaToOwner[i] == _owner) || (isOnAuction(colaToAuction[i]) && (colaToAuction[i].seller == _owner))) {\r\n\t\t\t\tresult[count] = i;\r\n\t\t\t\tcount++;\r\n            }\r\n\t\treturn result;\r\n    }\r\n        \r\n    function getColaMarket() public view returns(uint[] memory) {\r\n\t\tuint count = 0;\r\n        for (uint i = 0; i < colas.length; ++i) \r\n            if (isOnAuction(colaToAuction[i])) count++;\r\n\t\tuint[] memory result = new uint[](count);\r\n\t\tcount = 0;\r\n\t\tfor (uint i = 0; i < colas.length; ++i)\r\n\t\t\tif (isOnAuction(colaToAuction[i])){\r\n\t\t\t\tresult[count] = i;\r\n\t\t\t\tcount++;\r\n\t\t\t}\r\n\t\treturn result;\r\n    }\r\n\r\n    function sellCola(uint _colaId, uint _price) external {\r\n        require(msg.sender == colaToOwner[_colaId]);\r\n\t\tcolaToAuction[_colaId] = Auction(msg.sender, _price*10**18, true);\r\n\t\ttransferFrom(msg.sender, address(this), _colaId);\r\n    }\r\n\r\n\tfunction cancelSellCola(uint _colaId) external {\r\n\t\trequire(isOnAuction(colaToAuction[_colaId]));\r\n\t\trequire(msg.sender == colaToAuction[_colaId].seller);\r\n\t\ttransferFrom(address(this), msg.sender, _colaId);\r\n\t\tremoveAuction(_colaId);\r\n\t}\r\n\r\n    function buyCola(uint _colaId) external payable {\r\n\t\trequire(isOnAuction(colaToAuction[_colaId]), \"not in sale\");\r\n\t\trequire(msg.value == colaToAuction[_colaId].price);\r\n\t\trequire(msg.value <= msg.sender.balance, \"you don't have enough money\");\r\n        address payable seller = address(uint160(colaToAuction[_colaId].seller));\r\n        seller.transfer(msg.value);\r\n\t\ttransferFrom(address(this), msg.sender, _colaId);\r\n\t\tremoveAuction(_colaId);\r\n    }\r\n}\r\n",
  "sourcePath": "/home/procedure2012/Project/CryptoCola/contracts/ColaPresentation.sol",
  "compiler": {
    "name": "solc",
    "version": "0.5.12+commit.7709ece9.Emscripten.clang"
  },
  "schemaVersion": "3.0.19",
  "updatedAt": "2020-03-24T17:41:58.365Z",
  "devdoc": {
    "methods": {}
  },
  "userdoc": {
    "methods": {}
  }
}