{
  "contractName": "ColaFactory",
  "abi": [
    {
      "anonymous": false,
      "inputs": [
        {
          "indexed": false,
          "internalType": "uint256",
          "name": "colaId",
          "type": "uint256"
        },
        {
          "indexed": false,
          "internalType": "string",
          "name": "name",
          "type": "string"
        },
        {
          "indexed": false,
          "internalType": "uint256",
          "name": "code",
          "type": "uint256"
        }
      ],
      "name": "NewCola",
      "type": "event"
    },
    {
      "constant": true,
      "inputs": [
        {
          "internalType": "uint256",
          "name": "",
          "type": "uint256"
        }
      ],
      "name": "colaToOwner",
      "outputs": [
        {
          "internalType": "address",
          "name": "",
          "type": "address"
        }
      ],
      "payable": false,
      "stateMutability": "view",
      "type": "function"
    },
    {
      "constant": true,
      "inputs": [
        {
          "internalType": "uint256",
          "name": "",
          "type": "uint256"
        }
      ],
      "name": "colas",
      "outputs": [
        {
          "internalType": "string",
          "name": "name",
          "type": "string"
        },
        {
          "internalType": "uint256",
          "name": "code",
          "type": "uint256"
        },
        {
          "internalType": "uint8",
          "name": "level",
          "type": "uint8"
        },
        {
          "internalType": "uint32",
          "name": "readyTime",
          "type": "uint32"
        }
      ],
      "payable": false,
      "stateMutability": "view",
      "type": "function"
    },
    {
      "constant": true,
      "inputs": [
        {
          "internalType": "address",
          "name": "",
          "type": "address"
        }
      ],
      "name": "ownerColaCount",
      "outputs": [
        {
          "internalType": "uint256",
          "name": "",
          "type": "uint256"
        }
      ],
      "payable": false,
      "stateMutability": "view",
      "type": "function"
    },
    {
      "constant": false,
      "inputs": [
        {
          "internalType": "uint32",
          "name": "_cooldownTime",
          "type": "uint32"
        }
      ],
      "name": "setCooldownTime",
      "outputs": [],
      "payable": false,
      "stateMutability": "nonpayable",
      "type": "function"
    },
    {
      "constant": true,
      "inputs": [],
      "name": "getCooldownTime",
      "outputs": [
        {
          "internalType": "uint32",
          "name": "",
          "type": "uint32"
        }
      ],
      "payable": false,
      "stateMutability": "view",
      "type": "function"
    },
    {
      "constant": false,
      "inputs": [
        {
          "internalType": "string",
          "name": "_name",
          "type": "string"
        }
      ],
      "name": "produceRandomCola",
      "outputs": [],
      "payable": false,
      "stateMutability": "nonpayable",
      "type": "function"
    }
  ],
  "bytecode": "0x60806040526010600055600054600a0a6001556000600360006101000a81548163ffffffff021916908363ffffffff160217905550603c600660006101000a81548163ffffffff021916908363ffffffff16021790555034801561006257600080fd5b5061089a806100726000396000f3fe608060405234801561001057600080fd5b50600436106100625760003560e01c806301c3fe6714610067578063658e2308146100d55780638f2a02b4146101a35780639dcc9904146101cd578063afd9b90014610225578063c7616ae3146102e0575b600080fd5b6100936004803603602081101561007d57600080fd5b8101908080359060200190929190505050610314565b604051808273ffffffffffffffffffffffffffffffffffffffff1673ffffffffffffffffffffffffffffffffffffffff16815260200191505060405180910390f35b610101600480360360208110156100eb57600080fd5b8101908080359060200190929190505050610347565b60405180806020018581526020018460ff1660ff1681526020018363ffffffff1663ffffffff168152602001828103825286818151815260200191508051906020019080838360005b8381101561016557808201518184015260208101905061014a565b50505050905090810190601f1680156101925780820380516001836020036101000a031916815260200191505b509550505050505060405180910390f35b6101ab610439565b604051808263ffffffff1663ffffffff16815260200191505060405180910390f35b61020f600480360360208110156101e357600080fd5b81019080803573ffffffffffffffffffffffffffffffffffffffff169060200190929190505050610453565b6040518082815260200191505060405180910390f35b6102de6004803603602081101561023b57600080fd5b810190808035906020019064010000000081111561025857600080fd5b82018360208201111561026a57600080fd5b8035906020019184600183028401116401000000008311171561028c57600080fd5b91908080601f016020809104026020016040519081016040528093929190818152602001838380828437600081840152601f19601f82011690508083019250505050505050919291929050505061046b565b005b610312600480360360208110156102f657600080fd5b81019080803563ffffffff1690602001909291905050506104d2565b005b60046020528060005260406000206000915054906101000a900473ffffffffffffffffffffffffffffffffffffffff1681565b6002818154811061035457fe5b9060005260206000209060030201600091509050806000018054600181600116156101000203166002900480601f0160208091040260200160405190810160405280929190818152602001828054600181600116156101000203166002900480156104005780601f106103d557610100808354040283529160200191610400565b820191906000526020600020905b8154815290600101906020018083116103e357829003601f168201915b5050505050908060010154908060020160009054906101000a900460ff16908060020160019054906101000a900463ffffffff16905084565b6000600660009054906101000a900463ffffffff16905090565b60056020528060005260406000206000915090505481565b6002600560003373ffffffffffffffffffffffffffffffffffffffff1673ffffffffffffffffffffffffffffffffffffffff16815260200190815260200160002054106104b757600080fd5b60006104c2826104f6565b90506104ce8282610584565b5050565b80600660006101000a81548163ffffffff021916908363ffffffff16021790555050565b600080826040516020018082805190602001908083835b60208310610530578051825260208201915060208101905060208303925061050d565b6001836020036101000a0380198251168184511680821785525050505050509050019150506040516020818303038152906040528051906020012060001c9050600154818161057b57fe5b06915050919050565b6000600160026040518060800160405280868152602001858152602001600060ff168152602001600660009054906101000a900463ffffffff1663ffffffff16420163ffffffff168152509080600181540180825580915050906001820390600052602060002090600302016000909192909190915060008201518160000190805190602001906106169291906107c0565b506020820151816001015560408201518160020160006101000a81548160ff021916908360ff16021790555060608201518160020160016101000a81548163ffffffff021916908363ffffffff1602179055505050039050336004600083815260200190815260200160002060006101000a81548173ffffffffffffffffffffffffffffffffffffffff021916908373ffffffffffffffffffffffffffffffffffffffff160217905550600560003373ffffffffffffffffffffffffffffffffffffffff1673ffffffffffffffffffffffffffffffffffffffff168152602001908152602001600020600081548092919060010191905055507fa64b6d0dcd584cf22e064bd7e637a7ebc7fe4f635054a8372c1a56b34b2b728b8184846040518084815260200180602001838152602001828103825284818151815260200191508051906020019080838360005b8381101561077f578082015181840152602081019050610764565b50505050905090810190601f1680156107ac5780820380516001836020036101000a031916815260200191505b5094505050505060405180910390a1505050565b828054600181600116156101000203166002900490600052602060002090601f016020900481019282601f1061080157805160ff191683800117855561082f565b8280016001018555821561082f579182015b8281111561082e578251825591602001919060010190610813565b5b50905061083c9190610840565b5090565b61086291905b8082111561085e576000816000905550600101610846565b5090565b9056fea265627a7a7231582031c301256b627c829ec05f0c1d9d32ccbf4e00f744aadf11de7e0f28071e745f64736f6c634300050c0032",
  "source": "pragma solidity ^0.5.8;\r\n\r\n//import \"../node_modules/@openzeppelin/contracts/ownership/Ownable.sol\";\r\nimport \"../node_modules/@openzeppelin/contracts/math/SafeMath.sol\";\r\n\r\ncontract ColaFactory {\r\n        using SafeMath for uint256;\r\n\r\n        uint codeDigits = 16;\r\n        uint codeModulus = 10 ** codeDigits;\r\n\r\n        event NewCola(uint colaId, string name, uint code);\r\n\r\n        struct Cola {\r\n            string name;\r\n            uint code;\r\n            uint8 level;\r\n            uint32 readyTime;\r\n        }\r\n\r\n        Cola[] public colas;\r\n        uint32 colaCount = 0;\r\n\r\n        mapping (uint => address) public colaToOwner;\r\n        mapping (address => uint) public ownerColaCount;\r\n\r\n        uint32 cooldownTime = 1 minutes;//need to consider\r\n\r\n        function setCooldownTime(uint32 _cooldownTime) public {\r\n            cooldownTime = _cooldownTime;\r\n        }\r\n\r\n        function getCooldownTime() public view returns(uint32) {\r\n            return cooldownTime;\r\n        }\r\n\r\n        function _produceCola(string memory _name, uint _code) internal {\r\n            uint id = colas.push(Cola(_name, _code, 0, uint32(now + cooldownTime))) - 1;\r\n            // colaCount = colaCount + 1;\r\n            colaToOwner[id] = msg.sender;\r\n            ownerColaCount[msg.sender]++;\r\n            emit NewCola(id, _name, _code);\r\n        }\r\n\r\n        function _generateRandomCode(string memory _str) private view returns (uint) {\r\n            uint rand = uint(keccak256(abi.encodePacked(_str)));\r\n            return rand % codeModulus;\r\n        }\r\n\r\n        function produceRandomCola(string memory _name) public {\r\n            require(ownerColaCount[msg.sender] < 2);\r\n            uint randCode = _generateRandomCode(_name);\r\n            _produceCola(_name, randCode);\r\n        }\r\n}\r\n",
  "sourcePath": "/home/procedure2012/Project/CryptoCola/contracts/ColaFactory.sol",
  "compiler": {
    "name": "solc",
    "version": "0.5.12+commit.7709ece9.Emscripten.clang"
  },
  "schemaVersion": "3.0.19",
  "updatedAt": "2020-03-24T09:55:38.111Z",
  "networkType": "ethereum",
  "devdoc": {
    "methods": {}
  },
  "userdoc": {
    "methods": {}
  }
}