{
  "contractName": "ColaFactory",
  "abi": [
    {
      "anonymous": false,
      "inputs": [
        {
          "indexed": false,
          "internalType": "uint256",
          "name": "colaId",
          "type": "uint256"
        },
        {
          "indexed": false,
          "internalType": "string",
          "name": "name",
          "type": "string"
        },
        {
          "indexed": false,
          "internalType": "uint256",
          "name": "code",
          "type": "uint256"
        }
      ],
      "name": "NewCola",
      "type": "event"
    },
    {
      "constant": true,
      "inputs": [
        {
          "internalType": "uint256",
          "name": "",
          "type": "uint256"
        }
      ],
      "name": "colaToOwner",
      "outputs": [
        {
          "internalType": "address",
          "name": "",
          "type": "address"
        }
      ],
      "payable": false,
      "stateMutability": "view",
      "type": "function"
    },
    {
      "constant": true,
      "inputs": [
        {
          "internalType": "uint256",
          "name": "",
          "type": "uint256"
        }
      ],
      "name": "colas",
      "outputs": [
        {
          "internalType": "string",
          "name": "name",
          "type": "string"
        },
        {
          "internalType": "uint256",
          "name": "code",
          "type": "uint256"
        },
        {
          "internalType": "uint8",
          "name": "level",
          "type": "uint8"
        },
        {
          "internalType": "uint32",
          "name": "readyTime",
          "type": "uint32"
        }
      ],
      "payable": false,
      "stateMutability": "view",
      "type": "function"
    },
    {
      "constant": true,
      "inputs": [
        {
          "internalType": "address",
          "name": "",
          "type": "address"
        }
      ],
      "name": "ownerColaCount",
      "outputs": [
        {
          "internalType": "uint256",
          "name": "",
          "type": "uint256"
        }
      ],
      "payable": false,
      "stateMutability": "view",
      "type": "function"
    },
    {
      "constant": false,
      "inputs": [
        {
          "internalType": "uint32",
          "name": "_cooldownTime",
          "type": "uint32"
        }
      ],
      "name": "setCooldownTime",
      "outputs": [],
      "payable": false,
      "stateMutability": "nonpayable",
      "type": "function"
    },
    {
      "constant": false,
      "inputs": [
        {
          "internalType": "address",
          "name": "_newOwner",
          "type": "address"
        }
      ],
      "name": "setOwner",
      "outputs": [],
      "payable": false,
      "stateMutability": "nonpayable",
      "type": "function"
    },
    {
      "constant": true,
      "inputs": [],
      "name": "getCooldownTime",
      "outputs": [
        {
          "internalType": "uint32",
          "name": "",
          "type": "uint32"
        }
      ],
      "payable": false,
      "stateMutability": "view",
      "type": "function"
    },
    {
      "constant": false,
      "inputs": [
        {
          "internalType": "string",
          "name": "_name",
          "type": "string"
        }
      ],
      "name": "produceRandomCola",
      "outputs": [],
      "payable": true,
      "stateMutability": "payable",
      "type": "function"
    }
  ],
  "bytecode": "0x60806040526010600055600054600a0a600155736d849ead5d243124a1c50b88011439757965e7ae600260006101000a81548173ffffffffffffffffffffffffffffffffffffffff021916908373ffffffffffffffffffffffffffffffffffffffff160217905550603c600660006101000a81548163ffffffff021916908363ffffffff16021790555034801561009557600080fd5b50610ca7806100a56000396000f3fe6080604052600436106100705760003560e01c80638f2a02b41161004e5780638f2a02b41461021c5780639dcc990414610253578063afd9b900146102b8578063c7616ae31461037357610070565b806301c3fe671461007557806313af4035146100f0578063658e230814610141575b600080fd5b34801561008157600080fd5b506100ae6004803603602081101561009857600080fd5b81019080803590602001909291905050506103b4565b604051808273ffffffffffffffffffffffffffffffffffffffff1673ffffffffffffffffffffffffffffffffffffffff16815260200191505060405180910390f35b3480156100fc57600080fd5b5061013f6004803603602081101561011357600080fd5b81019080803573ffffffffffffffffffffffffffffffffffffffff1690602001909291905050506103e7565b005b34801561014d57600080fd5b5061017a6004803603602081101561016457600080fd5b81019080803590602001909291905050506104d1565b60405180806020018581526020018460ff1660ff1681526020018363ffffffff1663ffffffff168152602001828103825286818151815260200191508051906020019080838360005b838110156101de5780820151818401526020810190506101c3565b50505050905090810190601f16801561020b5780820380516001836020036101000a031916815260200191505b509550505050505060405180910390f35b34801561022857600080fd5b506102316105c3565b604051808263ffffffff1663ffffffff16815260200191505060405180910390f35b34801561025f57600080fd5b506102a26004803603602081101561027657600080fd5b81019080803573ffffffffffffffffffffffffffffffffffffffff1690602001909291905050506105dd565b6040518082815260200191505060405180910390f35b610371600480360360208110156102ce57600080fd5b81019080803590602001906401000000008111156102eb57600080fd5b8201836020820111156102fd57600080fd5b8035906020019184600183028401116401000000008311171561031f57600080fd5b91908080601f016020809104026020016040519081016040528093929190818152602001838380828437600081840152601f19601f8201169050808301925050505050505091929192905050506105f5565b005b34801561037f57600080fd5b506103b26004803603602081101561039657600080fd5b81019080803563ffffffff1690602001909291905050506107dd565b005b60046020528060005260406000206000915054906101000a900473ffffffffffffffffffffffffffffffffffffffff1681565b600260009054906101000a900473ffffffffffffffffffffffffffffffffffffffff1673ffffffffffffffffffffffffffffffffffffffff163373ffffffffffffffffffffffffffffffffffffffff161461048d576040517f08c379a0000000000000000000000000000000000000000000000000000000008152600401808060200182810382526030815260200180610c176030913960400191505060405180910390fd5b80600260006101000a81548173ffffffffffffffffffffffffffffffffffffffff021916908373ffffffffffffffffffffffffffffffffffffffff16021790555050565b600381815481106104de57fe5b9060005260206000209060030201600091509050806000018054600181600116156101000203166002900480601f01602080910402602001604051908101604052809291908181526020018280546001816001161561010002031660029004801561058a5780601f1061055f5761010080835404028352916020019161058a565b820191906000526020600020905b81548152906001019060200180831161056d57829003601f168201915b5050505050908060010154908060020160009054906101000a900460ff16908060020160019054906101000a900463ffffffff16905084565b6000600660009054906101000a900463ffffffff16905090565b60056020528060005260406000206000915090505481565b6002600560003373ffffffffffffffffffffffffffffffffffffffff1673ffffffffffffffffffffffffffffffffffffffff16815260200190815260200160002054106106aa576040517f08c379a00000000000000000000000000000000000000000000000000000000081526004018080602001828103825260168152602001807f5761697420666f722074686520636f6f6c646f776e210000000000000000000081525060200191505060405180910390fd5b671bc16d674ec800003373ffffffffffffffffffffffffffffffffffffffff1631101561073f576040517f08c379a00000000000000000000000000000000000000000000000000000000081526004018080602001828103825260198152602001807f596f7520646f6e2774206861766520656e6f756768204554480000000000000081525060200191505060405180910390fd5b671bc16d674ec80000341461075357600080fd5b6000600260009054906101000a900473ffffffffffffffffffffffffffffffffffffffff1690508073ffffffffffffffffffffffffffffffffffffffff166108fc349081150290604051600060405180830381858888f193505050501580156107c0573d6000803e3d6000fd5b5060006107cc836108a7565b90506107d88382610935565b505050565b600260009054906101000a900473ffffffffffffffffffffffffffffffffffffffff1673ffffffffffffffffffffffffffffffffffffffff163373ffffffffffffffffffffffffffffffffffffffff1614610883576040517f08c379a000000000000000000000000000000000000000000000000000000000815260040180806020018281038252602c815260200180610c47602c913960400191505060405180910390fd5b80600660006101000a81548163ffffffff021916908363ffffffff16021790555050565b600080826040516020018082805190602001908083835b602083106108e157805182526020820191506020810190506020830392506108be565b6001836020036101000a0380198251168184511680821785525050505050509050019150506040516020818303038152906040528051906020012060001c9050600154818161092c57fe5b06915050919050565b6000600160036040518060800160405280868152602001858152602001600060ff168152602001600660009054906101000a900463ffffffff1663ffffffff16420163ffffffff168152509080600181540180825580915050906001820390600052602060002090600302016000909192909190915060008201518160000190805190602001906109c7929190610b71565b506020820151816001015560408201518160020160006101000a81548160ff021916908360ff16021790555060608201518160020160016101000a81548163ffffffff021916908363ffffffff1602179055505050039050336004600083815260200190815260200160002060006101000a81548173ffffffffffffffffffffffffffffffffffffffff021916908373ffffffffffffffffffffffffffffffffffffffff160217905550600560003373ffffffffffffffffffffffffffffffffffffffff1673ffffffffffffffffffffffffffffffffffffffff168152602001908152602001600020600081548092919060010191905055507fa64b6d0dcd584cf22e064bd7e637a7ebc7fe4f635054a8372c1a56b34b2b728b8184846040518084815260200180602001838152602001828103825284818151815260200191508051906020019080838360005b83811015610b30578082015181840152602081019050610b15565b50505050905090810190601f168015610b5d5780820380516001836020036101000a031916815260200191505b5094505050505060405180910390a1505050565b828054600181600116156101000203166002900490600052602060002090601f016020900481019282601f10610bb257805160ff1916838001178555610be0565b82800160010185558215610be0579182015b82811115610bdf578251825591602001919060010190610bc4565b5b509050610bed9190610bf1565b5090565b610c1391905b80821115610c0f576000816000905550600101610bf7565b5090565b9056fe4f6e6c79207468652063757272656e74206f776e65722063616e206368616e676520746865206f776e657273686970214f6e6c7920746865206f776e65722063616e206368616e67652074686520636f6f6c646f776e2074696d6521a265627a7a72315820e8252fc1b0b8e63ace5e8986d4d25da3fe2d5d0098a8ed5bd3885df46553ba9d64736f6c634300050c0032",
  "source": "pragma solidity ^0.5.8;\r\n\r\n//import \"../node_modules/@openzeppelin/contracts/ownership/Ownable.sol\";\r\nimport \"../node_modules/@openzeppelin/contracts/math/SafeMath.sol\";\r\n\r\ncontract ColaFactory {\r\n        using SafeMath for uint256;\r\n\r\n        uint codeDigits = 16;\r\n        uint codeModulus = 10 ** codeDigits;\r\n        address owner = 0x6d849eaD5D243124a1c50B88011439757965E7ae;\r\n\r\n        event NewCola(uint colaId, string name, uint code);\r\n\r\n        struct Cola {\r\n            string name;\r\n            uint code;\r\n            uint8 level;\r\n            uint32 readyTime;\r\n        }\r\n\r\n        Cola[] public colas;\r\n\r\n        mapping (uint => address) public colaToOwner;\r\n        mapping (address => uint) public ownerColaCount;\r\n\r\n        uint32 cooldownTime = 1 minutes;//need to consider\r\n\r\n        function setCooldownTime(uint32 _cooldownTime) public {\r\n            require(msg.sender == owner, \"Only the owner can change the cooldown time!\");\r\n            cooldownTime = _cooldownTime;\r\n        }\r\n\r\n        function setOwner(address _newOwner) external {\r\n            require(msg.sender == owner, \"Only the current owner can change the ownership!\");\r\n            owner = _newOwner;\r\n        }\r\n\r\n        function getCooldownTime() public view returns(uint32) {\r\n            return cooldownTime;\r\n        }\r\n\r\n        function _produceCola(string memory _name, uint _code) internal {\r\n            uint id = colas.push(Cola(_name, _code, 0, uint32(now + cooldownTime))) - 1;\r\n            colaToOwner[id] = msg.sender;\r\n            ownerColaCount[msg.sender]++;\r\n            emit NewCola(id, _name, _code);\r\n        }\r\n\r\n        function _generateRandomCode(string memory _str) private view returns (uint) {\r\n            uint rand = uint(keccak256(abi.encodePacked(_str)));\r\n            return rand % codeModulus;\r\n        }\r\n\r\n        function produceRandomCola(string memory _name) public payable {\r\n            require(ownerColaCount[msg.sender] < 2, \"Wait for the cooldown!\");\r\n            require(msg.sender.balance >= 2*(10**18), \"You don't have enough ETH\");\r\n            require(msg.value == 2*(10**18));\r\n            address payable receiever = address(uint160(owner));\r\n            receiever.transfer(msg.value);\r\n            uint randCode = _generateRandomCode(_name);\r\n            _produceCola(_name, randCode);\r\n        }\r\n}\r\n",
  "sourcePath": "/home/procedure2012/Project/CryptoCola/contracts/ColaFactory.sol",
  "compiler": {
    "name": "solc",
    "version": "0.5.12+commit.7709ece9.Emscripten.clang"
  },
  "schemaVersion": "3.0.19",
  "updatedAt": "2020-03-25T17:26:22.225Z",
  "networkType": "ethereum",
  "devdoc": {
    "methods": {}
  },
  "userdoc": {
    "methods": {}
  }
}